:020000040800F2
:10600000784B0020B1610008B5890008F1790008DB
:106010008D890008ED6B00080D900008000000005D
:1060200000000000000000000000000019610008EE
:1060300025750008000000005D610008398C00082B
:10604000CB610008CB610008CB610008CB61000880
:10605000CB610008CB610008CB610008CB61000870
:10606000CB610008CB610008CB610008CB61000860
:10607000CB610008CB610008CB610008CB61000850
:10608000CB610008CB610008CB610008CB61000840
:10609000CB610008CB610008CB610008CB61000830
:1060A000CB610008CB610008CB610008CB61000820
:1060B000198D0008CB610008CB610008CB61000896
:1060C000CB610008CB610008CB610008CB61000800
:1060D000CB610008AD8E0008F18E0008CB6100088E
:1060E000BD770008CB610008CB610008000000000C
:1060F00000000000000000000000000000000000A0
:10610000CB610008DFF80CD000F032FB00480047FC
:10611000A9A70008784B0020224B19680868B0E84E
:10612000F00F80F30988BFF36F8F4FF0000080F30A
:1061300011884EF00D0E7047000000000648006800
:10614000006880F3088862B661B6BFF34F8FBFF373
:106150006F8F00DF00BF00BF08ED00E0EFF30980A4
:10616000BFF36F8F0F4B1A6820E9F00F106008B56E
:106170004FF0500080F31188BFF34F8FBFF36F8F44
:1061800006F0F4FC4FF0000080F31188BDE80840F1
:1061900019680868B0E8F00F80F30988BFF36F8FC3
:1061A000704700BF80000020EFF3058070470000BB
:1061B0000648804706480047FEE7FEE7FEE7FEE7A1
:1061C000FEE7FEE7FEE7FEE7FEE7FEE76D8C000870
:1061D00005610008202A04DB203A21FA02F00021A0
:1061E000704721FA02F3D040C2F1200291400843E7
:1061F0001946704740EA01039B0703D009E008C92C
:10620000121F08C0042AFAD203E011F8013B00F87B
:10621000013B521EF9D27047D2B201E000F8012BC7
:10622000491EFBD270470022F6E710B513460A4616
:1062300004461946FFF7F0FF204610BD421C10F837
:10624000011B0029FBD1801A7047034611F8012B6E
:1062500000F8012B002AF9D1184670472DE9FE4FAE
:10626000804681EA0300C00F0C46009021F00041F7
:1062700023F00045B8EB0200A94105D24046214673
:1062800090461C460B46024623F00040104347D080
:10629000270DC7F30A00C3F30A510290401A019078
:1062A00040286BDAC3F3130040F4801B0098924639
:1062B00020B10023D2EB030A63EB0B0B0198594684
:1062C000C0F14002504600F09EF906460D46504689
:1062D0005946019A00F0A6F910EB0800614100242C
:1062E00087EA115284EAE7731A4340D0009A62B3F6
:1062F000019A012A4FEA075215DC001B61EB0201EB
:106300004FF0004202EA0752CDE90042001C41F57D
:10631000801132462B4600F0DDF903B0BDE8F08F66
:1063200040462146F9E7001B61EB0201001C41F5E4
:10633000801300185B412018A2F5001747EB0301FA
:1063400040EAD570B6196D4111E06D084FEA360686
:1063500045EAC0754FEA0752001B61EB0201001CC1
:1063600041F5801149084FEA300000195141324689
:106370002B4603B0BDE8F04F00F09DB90098012214
:1063800040000023D0EB020263EBE073009821464B
:106390004FEAE074B8EB000061EB0401E9E783F039
:1063A00000435BE781F0004158E72DE9FE4F81EAA9
:1063B000030404F0004421F0004100944FF0000B6E
:1063C00023F0004350EA01045ED052EA03045BD09C
:1063D000C3F30A54C1F30A552C44A4F2F3340194D4
:1063E000A0FB0254C1F3130141F48011C3F3130362
:1063F00043F4801301FB024400FB034E840A970A16
:1064000044EA815447EA8357A4FB076802958D0A42
:1064100005FB07854FEA932C04FB0C542705029DCE
:106420004FEA065847EA1637B5EB08056EEB070C3E
:10643000870E920E47EA811742EA8312A7FB0201F8
:10644000B6EB0B0164EB00042B0D43EA0C335E1832
:1064500044EB1C50DA465146E7FB0201C5F3130436
:106460004FEA0B3343EA14534FEA0432019C43EAE8
:106470000603A4F10C040294009CCDE900B400F0E2
:1064800029F903B0BDE8F08F00200146F9E72DE9B6
:10649000F04D81EA030404F0004B21F0004514465E
:1064A0004FF0000A23F0004150EA050220D054EAE0
:1064B00001021DD0C5F30A570246C5F31303C1F309
:1064C0001300C1F30A5640F4801543F48013A7EB80
:1064D0000608101BD64608F2FD3873EB050002D300
:1064E00008F1010801E092185B41B8F1000F03DAEE
:1064F00000200146BDE8F08D00204FF480110646D3
:1065000084460EE0171B73EB050705D3121B63EBE4
:10651000050306434CEA010C49084FEA3000921883
:106520005B4150EA0107EDD152EA030012D082EA42
:10653000040083EA0501084305D0101BAB4106D2D5
:106540000122002306E000224FF0004302E06FF03A
:10655000010253101AEB06004CEB085110EB0A0035
:1065600041EB0B01BDE8F04D00F0A5B896230022E9
:10657000114600F072B870B5C1F30A5201F000453F
:106580000024C1F3130140F2FF3341F480119A4219
:1065900001DA002070BD40F233439A42A2F2334246
:1065A00003DC5242FFF716FE00E090402C43F1D08E
:1065B000404270BD00F0004230F000400AD0C10DF2
:1065C00001F56071C0F3160042EA0151C2084007AC
:1065D0001143704700200146704730B50B46014615
:1065E00000202022012409E021FA02F59D4205D372
:1065F00003FA02F5491B04FA02F52844151EA2F11C
:106600000102F1DC30BD202A04DB203A00FA02F15D
:10661000002070479140C2F1200320FA03F3194390
:1066200090407047202A06DBCB17203A41FA02F04F
:1066300043EAE07306E041FA02F3D040C2F12002DF
:1066400091400843194670470029A8BF7047401C75
:10665000490008BF20F00100704710B4B0FA80FC78
:1066600000FA0CF050EA010404BF10BC704749B1B5
:10667000CCF1200421FA04F411FA0CF118BF012125
:1066800021430843A3EB0C01CB1D4FEA00614FEA05
:10669000102042BF002010BC704700EBC3501044D4
:1066A0000029A4BF10BC7047401C490008BF20F05F
:1066B000010010BC704710B5141E73F1000408DA15
:1066C000401C41F1000192185B411A4301D120F0B6
:1066D000010010BD2DE9F04D92469B4611B1B1FA73
:1066E00081F202E0B0FA80F220329046FFF78BFF91
:1066F00004460F4640EA0A0041EA0B0153465A4657
:10670000084313D0114653EA010019D0C8F14002E2
:106710005046FFF75FFD05460E4650465946424635
:10672000FFF771FF084305D0012004E020463946F9
:10673000BDE8F08D0020054346EAE0762C43374360
:106740000A986305E40AA0EB08000022FD0A44EA67
:1067500047540A3002D500200146E9E70105101927
:106760006941DDE9084500196941BDE8F04DA2E73E
:10677000064C074D06E0E06840F0010394E807008E
:1067800098471034AC42F6D3FFF7C0FC20D800087D
:1067900040D8000810B540F2096005F031F9032037
:1067A00005F078F8002002F0EBFE00224FF4807133
:1067B000184802F05CFF00220221164802F057FF41
:1067C00001221146134802F090FE0021114802F008
:1067D00081FE012211460F4802F059FE02F074FFBB
:1067E0000523102200210B4802F0D8FE4FF460224E
:1067F0000121084802F0A8FE064802F09CFE012094
:1068000005F08EFF034802F02DFE0121014802F041
:106810001FFF10BD002401402DE9FF470446B04989
:1068200003C9CDE902014FF000080026AD4F2078E2
:106830008DF8090000208DF80A00AB48007848B1B7
:1068400000BFAAA002F052FC62782178ABA002F04F
:106850004DFC00BF2078323819286ED2DFE800F0F6
:106860002B6D0D141B6D25333A456E73798085961B
:106870009B9EA4B1AA6DB7BDC4006078012103F04E
:10688000E5FD4FF000081AE16078002103F0DEFD1D
:106890004FF0000813E1607810B100F09DFF01E0B7
:1068A00000F06EFE4FF0000809E1607803F0B4FDDF
:1068B0004FF0000803E1607803F0CEFA8DF80A008B
:1068C0004FF00108FBE0617848B205F0FFF84FF0A7
:1068D0000008F4E003F092FA642190FBF1F0C0B2FA
:1068E0008DF80A004FF00108E9E0607800F0F00050
:1068F00078B9607800F00F0028B100208A4908704C
:1069000003F02AFC16E001208749087003F002FC1E
:1069100010E0607800F0F000E02803D1012005F0DD
:1069200019F907E0607800F0F000D02802D10020CB
:1069300005F010F94FF00008C1E0B7E003F058FC93
:106940004FF00008BBE0607803F0DAFC4FF000087D
:10695000B5E003F083FC8DF80A004FF00108AEE0CB
:1069600003F0B6FC4FF00008A9E070A006F0C8FDE7
:1069700048B90020042103465022CDE900106BA144
:106980006C4806F0AFFB4FF0000898E004F0EAF91D
:106990004FF0000893E04FF0000890E0607803F0BB
:1069A000C9FE4FF000088AE0607801F08BFB4FF0E1
:1069B000000884E003F012FA8DF80A004FF0010895
:1069C0007DE0607802F036FB4FF0000877E06078F9
:1069D00002F042F84FF0000871E000F059FF8DF826
:1069E0000A004FF001086AE0607800BB3E4800787A
:1069F00010B151A002F07AFB5A21012002F0BEFA38
:106A0000A521012002F0BAFAFF26002508E0795DF1
:106A1000012002F0B3FA785D3044C6B2681CC5B2FA
:106A2000202DF4DB3146012002F0A8FA3DE0607829
:106A300001280AD12C48007810B14AA002F04EFE7D
:106A400003F068FB03F01EFA2FE0607802282CD1D7
:106A5000FF265A21012002F091FAA521012002F01F
:106A60008DFA002510E005F10B00484A1268115C10
:106A7000012002F083FA05F10B0044490968085C23
:106A80003044C6B2681CC5B2142DECDB00F000FF28
:106A900081464946012002F071FA00F0F9FE3044C7
:106AA000C6B23146012002F069FA08E0FF208DF8F5
:106AB0000A0037A002F012FE4FF0000800BF00BF2E
:106AC000B8F1000F09D0032102A800F091F88DF869
:106AD0000B00042102A800F0DFF8BDE8FF870000EA
:106AE000F4D70008085E0008100000203C3C4D5917
:106AF0005F44454255473E3E200000007265636991
:106B000076652066726F6D204370755F6461746195
:106B100020636D64203D2025642064617461203D04
:106B20002025640D0A000000510000206C743932E9
:106B3000313100006D840008654D43555F55504468
:106B40004154455F4D43554649524D5F5459504558
:106B50002020636D645B315D203D3D2030200D0AB7
:106B600000000000654D43555F5550444154455F5A
:106B70004D43554649524D5F545950452020636D51
:106B8000645B315D203D3D20310D0A000000002096
:106B90006572726F723A206370752075617274202D
:106BA00073656E6420756E6B6F776E20636D642104
:106BB000210D0A0010B54FF4407004F073F94FF442
:106BC000C06004F01DFF0121074803F059FA00F0EE
:106BD000B3FE4FF4E13000F015FC03F045FB03F089
:106BE000A3FC03F0D7FB10BD0002300000BFFEE79E
:106BF00010B502460B460021002004E0545C04441A
:106C0000E0B24C1CE1B29942F8DB10BD10B5002295
:106C100011460248006805F01BFE10BD240000204C
:106C20001CB500200090064805F040FBC0B2019062
:106C30006B46012201A90348006806F0BFF91CBD9C
:106C400000440040200000201CB5002000901048A7
:106C5000006806F031F804462CB940F207310D48BF
:106C600005F09AFB1CBD6B46012201A9084800688B
:106C700006F0CFF828B19DF80410012002F07EF94B
:106C800004E040F20731034805F086FB00BFE9E766
:106C90001C0000200044004070B505460E4600244C
:106CA00004E0285D02F00EFA601CC4B2B442F8DBC6
:106CB00070BD000070B50446622C6ED018DC352C17
:106CC00073D008DCA4F13000052825D2DFE800F0FD
:106CD0002A384D626700382C71D004DC362C76D00F
:106CE000372C19D180E0392C6BD0612C14D18BE07A
:106CF000682C67D008DCA4F1630005280CD2DFE81B
:106D000000F0898C8F929500692C73D06A2C72D018
:106D1000702C71D0762C70D066A002F0DFFC00F0F1
:106D2000A5F900BF6AA002F0D9FC6C48006802F027
:106D3000D5FC6BA002F0D2FC6AA002F0CFFCB6E05A
:106D400000F0ACFD80B170480078642809DA6E4824
:106D500000780A3040B201F0B5FD6CA002F0BEFC34
:106D600002E071A002F0BAFCA1E000F097FD80B152
:106D7000654800780A2809DB634909780A3948B26E
:106D800001F0A0FD6DA002F0A9FC02E072A002F0EB
:106D9000A5FC8CE004F016FD89E038E005E072A067
:106DA00002F09CFC01F0D3F981E074A002F096FCA3
:106DB00003F01EF838B176A002F090FC06E01DE06A
:106DC00005E01EE039E074A002F088FC6FE074A0DA
:106DD00002F084FC03F012F805460A2102F08CFC54
:106DE0003FA002F07BFC62E073A002F077FC03F0AE
:106DF0006FFA5CE028E036E048E03FE001F096F909
:106E000055E002F04FF952E003F0EAFA4FE001F0EA
:106E100053FE4CE001F0B2FE49E000F047FC46E0D2
:106E200000F0AAFC43E003F0DBFA40E068A002F0C7
:106E300055FC012003F0F0FA39E06FA002F04EFC9F
:106E4000002003F0E9FA32E002F0D2FF28B103F0AB
:106E500061F901207249087004E00020704908704F
:106E600003F07AF923E003F055FA18B1002004F09A
:106E700071FE02E0012004F06DFE18E000F008FD54
:106E80000546294667A002F031F910E06A4800780B
:106E900030B16AA002F02AF900206749087005E0C5
:106EA0006CA002F023F901206349087000BF00BF05
:106EB00070BD00004552524F523A20436F6D6D61D4
:106EC0006E6420556E6B6E6F77200D0A0000000017
:106ED0002A4672656552544F532A20000000002054
:106EE0000D0A0000417574686F723A4A4326446186
:106EF0005A6869203C76783A323835343038313344
:106F0000363E0D0A000000004A000020696E6372E0
:106F100065617365203720696E6368206C63642047
:106F200050574D0D0A000000675F6C63645F707717
:106F30006D203D203130300D0A0000006465637221
:106F400065617365203720696E6368206C63642017
:106F500050574D0D0A000000675F6C63645F7077E7
:106F60006D203D20300D0A007265736574204C431E
:106F700044202620393231310D0A000057617463F4
:106F80006820446F6720537461747573203A200041
:106F90006F6E0D0A000000006F66660D0A000000AB
:106FA0004D637520696E7465726E616C5F74656D9A
:106FB00070203D2000000000726573657420636FCF
:106FC000726520626F61726421210D0A0000000069
:106FD00032303233206B65795F6C696768745F614A
:106FE0006C6C6C6564735F636F6E74726F6C283168
:106FF0002921210D0A00000032303233206B6579DF
:107000005F6C696768745F616C6C6C6564735F6307
:107010006F6E74726F6C28302921210D0A000000F8
:10702000510000206D63752076657273696F6E2064
:107030003D2025640D0A000010000020636C6F7372
:1070400065206D6F726520646562756720696E6684
:107050006F0D0A007072696E74206D6F7265206426
:107060006562756720696E666F0D0A0010B526A00F
:1070700002F03CF828A002F039F800F00FFC28B12B
:107080002DA002F033F83AA002F030F846A002F04A
:107090002DF84CA002F02AF850A002F027F858A0D2
:1070A00002F024F85EA002F021F863A002F01EF8BE
:1070B00067A002F01BF86DA002F018F871A002F0B2
:1070C00015F879A002F012F87CA002F00FF881A068
:1070D00002F00CF885A002F009F88DA002F006F885
:1070E00091A002F003F896A002F000F89CA001F035
:1070F000FDFFA8A001F0FAFFADA001F0F7FFB3A0DB
:1071000001F0F4FF10BD00000D0A446562756720B0
:10711000636D643A0D0A0000302E207072696E743F
:107120002050726F6772616D206275696C642074A3
:10713000696D650D0A000000312E203720696E63ED
:1071400068206C63642050574D20696E63726561DE
:1071500063652835696E6368206C636420686173B9
:10716000206E6F20656666656374290D0A00000055
:10717000322E203720696E6368206C63642050577C
:107180004D2064656372656163652835696E636867
:10719000206C636420686173206E6F20656666658D
:1071A0006374290D0A000000332E20667265655253
:1071B000746F73207461736B207374617473212115
:1071C0000D0A0000342E207265736574204C434410
:1071D000202620393231310D0A000000352E207072
:1071E00072696E742048617264205761746368200C
:1071F000446F67205374617475730D0A00000000BA
:10720000362E207072696E74204D637520696E741D
:1072100065726E616C5F74656D700D0A0000000030
:10722000372E20726573657420636F726520626FFC
:1072300061726421210D0A00382E204C53504B5F9F
:10724000436F6E74726F6C20746573740D0A000066
:10725000392E205631325F43544C284D4F525345FE
:107260002920746573740D0A00000000612E206BE4
:1072700065794C4544532070776D20746573740DA7
:107280000A000000622E2035696E6368206C63641A
:1072900020626C61636B6C6967687420636F6E74E5
:1072A000726F6C0D0A000000632E2053504B454E48
:1072B00020636F6E74726F6C0D0A0000642E20459F
:1072C00041525F4C5F454E20636F6E74726F6C0D60
:1072D0000A000000652E204541525F525F454E2056
:1072E000636F6E74726F6C0D0A000000662E206B67
:1072F00065795F6C6564732070776D20696E637269
:10730000656163652831302525290D0A00000000DC
:10731000672E206B65795F6C65647320616C6C20EF
:107320006F6E0D0A00000000682E206B65795F6C9F
:1073300065647320616C6C206F66660D0A00000046
:10734000692E20776174636820646F672074656DAF
:10735000706F72617479206F6E2F6F66660D0A0010
:107360006A2E20776174636820646F672073657488
:10737000206F6E2F6F6666284D61696E7461696E4D
:107380002061667465722072657374617274290D70
:107390000A000000702E207072696E74206D6F728A
:1073A0006520646562756720696E666F0D0A00006E
:1073B000762E207072696E742050726F6772616DE4
:1073C0002076657273696F6E0D0A00006F746865D0
:1073D000722E207072696E742068656C700D0A00E0
:1073E00008B50CE04FF0FF330122694604480068FD
:1073F00005F0A9FC18B19DF80000FFF75BFCF1E770
:107400000C00002010B504464FF4E131002002F0DA
:1074100069FC00220121402005F05AFC0449086063
:1074200000220121402005F053FC0249086010BDF4
:10743000080000200C00002008B504264FF00009C9
:1074400000254FF4E13000F053F84EE04FF0FF32EA
:107450001146002004F096FE00BF2448006805F0A5
:107460002BFC0746B74200D23EE0C6F1040000F014
:10747000FF090DEB0901002332461C48006805F0A6
:1074800062FCC5B26DB37F1BB5420DD19DF8000003
:10749000A52809D10421684601F0A5FD20B90DF108
:1074A0000100FFF7B9F91DE0012405E01DF8040013
:1074B000A52800D102E0641CAC42F7D300BFAC4267
:1074C0000DD0E6B24FF0000806E01DF804000DF8FC
:1074D0000800641C08F10108AC42F6D302E004265F
:1074E00000E001E0042FB8D200BFAFE72000002089
:1074F00010B504462146012002F0F4FB00220121D0
:10750000102005F0E5FB0549086000220C21102041
:1075100005F0DEFB0249086010BD00001C000020E1
:107520002000002070470000F0B5034600224FF015
:10753000E0277D69104F3F68DFF840C0B7FBFCF7DC
:10754000FEB203FB06F44FF0E027B96910E04FF0FC
:10755000E027B86988420BD0884202D20F1A3A4419
:1075600002E02F1A0F443A440146A24200D300E041
:10757000EDE700BFF0BD0000EC00002040420F002E
:1075800010B5134890F90000002804DA00F086F9DD
:1075900040B20F4908700E48007830B9002001F061
:1075A0005BFA0CA002F09AF810E011480288022160
:1075B000104804F0F8FC642005F0B2F80D4804F01F
:1075C0003AFD00F023F80CA002F088F810BD00008E
:1075D0004B00002044697361626C655F4C63644CCE
:1075E000696768742035696E63680D0A00000000E1
:1075F00048000020002C014044697361626C655FA3
:107600004C63644C696768740D0A000010B501F0A2
:1076100035F94FF48041024802F074FC10BD0000BF
:10762000000C014010B540F2046004F0E9F94FF499
:107630008051054802F066FC4FF48053022210216D
:10764000014802F0AFFC10BD0010014010B5044627
:1076500000BF07A001F04AFD214609A001F046FD48
:1076600000BF14B100F03AF801E000F02DF810BDB1
:107670003C3C4D595F44454255473E3E200000008A
:107680004541525F4C5F454E5F436F6E74726F6C45
:107690005F5365744F757456616C207374617475B3
:1076A00073203D2025640D0A0000000010B54FF442
:1076B0008051044802F0D8FC04462046FFF7C6FF7C
:1076C00010BD00000010014010B54FF48051024879
:1076D00002F01AFC10BD00000010014010B54FF47C
:1076E0008051024802F00EFC10BD00000010014065
:1076F00010B540F2046004F083F94FF400510548DE
:1077000002F000FC4FF4005302221021014802F065
:1077100049FC10BD0010014010B5044600BF07A091
:1077200001F0E4FC214609A001F0E0FC00BF14B127
:1077300000F03AF801E000F02DF810BD3C3C4D5946
:107740005F44454255473E3E200000004541525FA0
:10775000525F454E5F436F6E74726F6C5F5365741A
:107760004F757456616C20737461747573203D207D
:1077700025640D0A0000000010B54FF400510448C4
:1077800002F072FC04462046FFF7C6FF10BD000061
:107790000010014010B54FF40051024802F0B4FB54
:1077A00010BD00000010014010B54FF40051024818
:1077B00002F0A8FB10BD00000010014010B54FF40E
:1077C000805002F0DDF808B102F054F84FF4805018
:1077D00002F0D0F810BD000010B5194890F9000073
:1077E000002804DA00F05AF840B21549087014482D
:1077F000007830B9012001F02FF912A001F06EFFDE
:107800001CE000F039F8642004F08AFF134909787D
:1078100009B9462101E01149097848B201F052F84E
:10782000642004F07DFF0E4804F00AFC642004F09C
:1078300077FF00F021F80BA001F050FF10BD000011
:107840004B000020456E61626C655F4C63644C695F
:107850006768742035696E63680D0A004A0000206D
:10786000002C0140456E61626C655F4C63644C693D
:107870006768740D0A00000010B501F009F84FF4B4
:107880008041024802F040FB10BD0000000C0140A6
:1078900001480078704700000400002010B502F095
:1078A0009DFA062801D1012010BD0020FCE7000050
:1078B0002DE9F05F0221102001F0B2FA834658460C
:1078C000FEF754FE8046FEF775FE06464FF0663220
:1078D000124BFEF76AFD04460D4622462B46104821
:1078E0001049FEF75CFD80460F4A104BFEF7CFFDB6
:1078F000064600220E4BFEF7B1FC04460D46002260
:107900000C4B20462946FEF750FD0646FEF733FE97
:107910000FFA80FA5046BDE8F09F000066664A3FC5
:10792000E17A14AE47E1F63F22FDF675E09C713F27
:10793000000024400000594010B5FFF7AFFF10B120
:10794000462002F063FE01F023F802F0DFFE01F0B2
:1079500033F8FFF7A3FF08B100F07CFF00F0A0FBB5
:1079600001F056FB00F09EFF01F064F801F0C4F84E
:10797000FFF758FEFFF7BCFE10BD38B504460020E7
:10798000009001226946204600F006F810B19DF8EB
:10799000000038BD0020FCE7F8B504460D46164649
:1079A0002B462246064800960178002000F0C0F9D8
:1079B00008B9012000E0002007463846F8BD000065
:1079C0002C00002033B581B00446012002AB2246D2
:1079D000009006480178002000F0D8F908B901208D
:1079E00000E00020054628463EBD00002C00002097
:1079F00000BFFEE710B504460021204600F066FAFD
:107A0000204601F0FBF80021204600F08BFA04200C
:107A1000FFF78AFD0121204600F058FA0620FFF703
:107A200083FD0021204600F051FA0320FFF77CFD82
:107A300010BD000070B5054640F2036003F0E0FFA2
:107A4000012D02D14FF4406405E0022D02D14FF424
:107A5000407400E0C024234602221021054802F0B1
:107A6000A1FA0121284600F031FA0121284600F050
:107A700059FA70BD000C014010B5044600212046A3
:107A800000F024FA204601F0B9F80121204600F068
:107A900049FA0420FFF748FD0121204600F016FABC
:107AA0000620FFF741FD0021204600F00FFA0320D9
:107AB000FFF73AFD10BD2DE9F04107460D460024C1
:107AC0000021384600F002FA384601F079F8032028
:107AD000FFF72AFD00261EE00021384600F0F6F9E7
:107AE0000520FFF721FD0121384600F0EFF960067F
:107AF000040E0420FFF718FD384600F083FF08B19C
:107B0000601CC4B20420FFF70FFD0021384600F0CE
:107B1000DDF9701CC6B2082EDEDB1DB93846FFF752
:107B2000ABFF02E03846FFF765FF2046BDE8F08175
:107B300070B506460C460021304600F0C7F93046C5
:107B400001F05CF800251CE00320FFF7EDFC04F0D9
:107B50008001304600F0E6F96006040E0420FFF7CD
:107B6000E3FC0121304600F0B1F90620FFF7DCFC10
:107B70000021304600F0AAF90320FFF7D5FC681C6D
:107B8000C5B2082DE0DB70BD10B50446204601F0FB
:107B900035F80121204600F0C5F90121204600F00A
:107BA00095F90620FFF7C0FC0021204600F0BAF945
:107BB0000620FFF7B9FC0021204600F087F910BD30
:107BC00010B504460021204600F080F9204601F05F
:107BD00015F80021204600F0A5F90620FFF7A4FCC7
:107BE0000121204600F072F90320FFF79DFC0121DE
:107BF000204600F097F90620FFF796FC10BD70B5FF
:107C0000054600240021284600F060F90320FFF714
:107C10008BFC0121284600F085F90320FFF784FC46
:107C2000284600F0CDFF0121284600F04FF903203F
:107C3000FFF77AFC0BE0601CC4B2FA2C04DD284686
:107C4000FFF7BEFF012070BD0120FFF76DFC284645
:107C500000F0D8FE0028EED10021284600F036F9C9
:107C60000320FFF761FC0020EDE7000010B504469B
:107C70000120A04008490978084000B110BD204605
:107C8000FFF7D8FE0120A0400349097808430249C4
:107C9000087000BFF2E70000110000202DE9F0415C
:107CA00080460F4615461E4604F058FF4046FFF733
:107CB0006BFF47F001014046FFF73AFF4046FFF7F0
:107CC0009EFF50B105F0FEFC11A001F007FD4046FB
:107CD000FFF776FF0220BDE8F08100240FE0701E60
:107CE000A04205D100214046FFF7E5FE285504E0FB
:107CF00001214046FFF7DFFE2855601CC4B2B442A4
:107D0000EDDB05F0DFFC4046FFF75AFF0020E2E71D
:107D10004552524F523A4949435F576169745F4136
:107D2000636B28696E64657829213D20300D0A0057
:107D30002DE9F84306460F4690461C46DDF8209094
:107D400000200346424639460090304600F01EF8B7
:107D50000546FF2D07D14B46224639463046FFF7F0
:107D60009DFFBDE8F88302A001F0B8FC2846F8E7C3
:107D70004552524F523A204969634170705F5772C1
:107D80006974655F42797465730D0A002DE9F047E7
:107D900081460D4616461F46DDF8208004F0DEFEC3
:107DA0004846FFF7F1FE05F0FE014846FFF7C0FE2A
:107DB0004846FFF724FF50B105F084FC20A001F0F5
:107DC0008DFC4846FFF7FCFE0220BDE8F0873146F7
:107DD0004846FFF7ADFE4846FFF711FF48B105F0F2
:107DE00071FC23A001F07AFC4846FFF7E9FE03206E
:107DF000EBE7B8F1000F03D105F064FCFF20E4E7E6
:107E0000002413E0395D4846FFF792FE4846FFF72D
:107E1000F6FE48B105F056FC21A001F05FFC484693
:107E2000FFF7CEFE0420D0E7601CC4B24445E9DB76
:107E300005F048FC4846FFF7C3FE0020C5E70000F8
:107E40004552524F523A2073656E64206465765FE6
:107E500061646472204949435F576169745F41639B
:107E60006B28696E64657829213D20300D0A000079
:107E70004552524F523A2073656E6420776F726498
:107E80005F61646472204949435F576169745F416F
:107E9000636B28696E64657829213D20300D0A00E6
:107EA0004552524F523A2073656E6420646174618A
:107EB000204949435F576169745F41636B28696E6C
:107EC00064657829213D20300D0A000070B5054613
:107ED0000C46012D0BD124B18102114802F014F897
:107EE0001DE04FF480610E4802F00CF817E0022DFF
:107EF0000BD124B1E9010A4802F006F80FE04FF473
:107F00008071074801F0FEFF09E024B140210448D8
:107F100001F0FAFF03E04021014801F0F3FF70BDDA
:107F2000000C014070B505460C46012D0BD124B163
:107F3000C102114801F0E8FF1DE04FF400610E4856
:107F400001F0E0FF17E0022D0BD124B129020A480D
:107F500001F0DAFF0FE04FF40071074801F0D2FFA3
:107F600009E024B18021044801F0CEFF03E0802124
:107F7000014801F0C7FF70BD000C0140FEF70AFC8C
:107F800007E0FFF795FC034908804FF47A7004F08E
:107F9000C7FBF6E74C00002070B50446002C08DD56
:107FA0000C480078642804DA0A480078204445B276
:107FB0000BE0002C08DA07480078002804DD0548AB
:107FC0000078204445B200E070BD284603F07EFDF5
:107FD00000BFF9E77400002030B587B0044640F2D6
:107FE000036003F00DFD012302221821264801F051
:107FF000D9FF40F2017003F003FD642C00DD64241E
:108000002248047003A804F0B1F821480088401EFB
:108010000590204800682049B0FBF1F0401E80B276
:10802000ADF80C0003A91D4804F010F8684603F0F1
:10803000FAFF0120ADF800006A460221174803F05C
:108040008FFE70220221154803F080FFC4F1640006
:108050000F4909884843642190FBF1F52A46022123
:108060000E4803F0A0FF002202210C4803F0AEFFEF
:1080700001210A4804F06EF8084803F06CFE074836
:1080800003F0DEFF07B030BD000C0140740000209B
:1080900072000020EC00002040420F00000400406D
:1080A00010B540F2056003F0ABFC2021044801F05C
:1080B00029FF202302221021014801F073FF10BD87
:1080C0000014014010B5044600BF09A001F00EF8ED
:1080D00021460BA001F00AF800BF24B1202112486C
:1080E00001F012FF03E020210F4801F00BFF10BD4B
:1080F0003C3C4D595F44454255473E3E2000000000
:108100004C53504B5F436F6E74726F6C5F5365746A
:108110004F757456616C20737461747573203D20C3
:1081200025640D0A000000000014014010B5202154
:10813000054801F099FF04460CB9012100E0002137
:108140000846FFF7BFFF10BD00140140704710B58F
:1081500002F0CAFA00F0A6F900F008F8002002F0D8
:108160005BF9032000F03EFC10BD000010B515A027
:1081700001F0B4FAFFF7EAFF00F0F2F90A2004F088
:10818000CFFA00F01FF900F0FFF800F01BFA00F042
:108190005FF90A2004F0C4FA00F036F80A2004F06F
:1081A000BFFA00F0C3FA00F073FA00F021FA0A20D7
:1081B00004F0B6FA02F0E6FA02F0DAFA0A2004F065
:1081C000AFFA10BD0D0A204C54393231315F6D6960
:1081D000706920746F2054544C0D0A0010B50020B3
:1081E000FFF744FD40F2066003F00AFC02231A4642
:1081F0001021044801F0D6FE0221024801F082FE5F
:1082000010BD00000018014070B5D021FF20FFF71D
:10821000D9FB60210C20FFF7D5FB60211C20FFF764
:10822000D1FB70212420FFF7CDFB30212D20FFF75B
:10823000C9FB0A213120FFF7C5FBF0212520FFF7FC
:10824000C1FB30212A20FFF7BDFB4F212120FFF782
:10825000B9FB00212220FFF7B5FB01211E20FFF70B
:10826000B1FB80212320FFF7ADFB02210A20FFF79D
:10827000A9FB02213820FFF7A5FB04213920FFF7D5
:10828000A1FB08213A20FFF79DFB10213B20FFF7BF
:1082900099FB04213F20FFF795FB08214020FFF7C1
:1082A00091FB10214120FFF78DFB20214220FFF799
:1082B00089FBA0212B20FFF785FBD021FF20FFF7B2
:1082C00081FB2620FFF759FB044604F07F0421467A
:1082D0002620FFF777FB0F212720FFF773FB812173
:1082E000FF20FFF76FFBBF212020FFF76BFBFF2173
:1082F0002020FFF767FB052004F012FA6F210B2006
:10830000FFF760FBFF210B20FFF75CFB642004F00C
:1083100007FA002515E0C82004F002FAD021FF205A
:10832000FFF750FB8720FFF728FB00F0080018B18B
:1083300009A001F0D3F906E00CA001F0CFF9681C08
:10834000C5B20A2DE7DB00BFD021FF20FFF73AFBC3
:108350009420FFF712FB70BD0D0A4C5439323131B5
:108360002070637220737461626C65000D0A4C5456
:10837000393231312070637220756E737461626CB2
:10838000652121212100000010B58621FF20FFF783
:1083900019FB85213020FFF715FBD821FF20FFF7BF
:1083A00011FB00211620FFF70DFBD021FF20FFF766
:1083B00009FB12214320FFF705FB05210220FFF7EF
:1083C00001FB10BD10B5D021FF20FFF7FBFA002103
:1083D0000846FFF7F7FA8221FF20FFF7F3FA44215E
:1083E0000220FFF7EFFA36210520FFF7EBFA2621EE
:1083F0000D20FFF7E7FA0C211720FFF7E3FA0C2115
:108400001D20FFF7DFFA81210A20FFF7DBFA0021A8
:108410000B20FFF7D7FA9F210720FFF7D3FAFC21A3
:108420000820FFF7CFFA01210920FFF7CBFA01213D
:108430001120FFF7C7FA8621FF20FFF7C3FA1B219F
:108440003320FFF7BFFA1B213420FFF7BBFA10BD22
:1084500010B58221FF20FFF7B5FA48212D20FFF744
:10846000B1FA82213520FFF7ADFA10BD10B50446F0
:10847000FFF7B4FE0A2004F053F9FFF768FEFFF798
:108480000DFA08B1FFF7A8F94FF4FA7004F048F9B3
:1084900000F02AFB642004F043F9002004F064F9A2
:1084A00010BD000010B540F2066003F0A9FA0221E9
:1084B000064801F027FD642004F032F90221034848
:1084C00001F022FD642004F02BF910BD00180140DA
:1084D00010B50446642004F023F9D021FF20FFF7F3
:1084E00071FA608A01120D20FFF76CFAA17C0E2050
:1084F000FFF768FA208A01120F20FFF763FA217C48
:108500001020FFF75FFA217B1520FFF75BFA6089E7
:1085100001121720FFF756FAA17A1820FFF752FA36
:10852000208901121120FFF74DFA217A1220FFF75E
:1085300049FAE08801121320FFF744FAA1791420C8
:10854000FFF740FAA1781620FFF73CFA20880112C5
:108550001920FFF737FA21781A20FFF733FA10BDF8
:1085600010B58221FF20FFF72DFA18210120FFF717
:1085700029FA8621FF20FFF725FA61210620FFF75F
:1085800021FAA8210720FFF71DFA8721FF20FFF716
:1085900019FA08211420FFF715FA00211520FFF71A
:1085A00011FA0F211820FFF70DFA08212220FFF7FA
:1085B00009FA00212320FFF705FA0F212620FFF7F3
:1085C00001FA10BD10B5642004F0AAF80348FFF7C3
:1085D0007FFF03A001F082F810BD000030000020F2
:1085E00031303234783630305F3630487A0D0A0018
:1085F00010B54024FFF752F900B150241DA001F03E
:108600006DF88521FF20FFF7DDF921465920FFF79E
:10861000D9F9AA215A20FFF7D5F9AA215B20FFF743
:10862000D1F900215C20FFF7CDF950218820FFF718
:10863000C9F97721A120FFF7C5F98621FF20FFF7AF
:10864000C1F940210846FFF7BDF934214120FFF769
:10865000B9F910214220FFF7B5F923214320FFF794
:10866000B1F941214420FFF7ADF902214520FFF780
:10867000A9F910BD0D4C5439323131207365742085
:10868000746F204F55545055545F4C56445300005E
:1086900010B58221FF20FFF795F900216220FFF736
:1086A00091F908213B20FFF78DF992213E20FFF739
:1086B00089F948213F20FFF785F931214020FFF754
:1086C00081F980214320FFF77DF900214420FFF745
:1086D00079F900214520FFF775F900214920FFF7BE
:1086E00071F901214A20FFF76DF900214E20FFF7B3
:1086F00069F900214F20FFF765F900215020FFF7AD
:1087000061F900215320FFF75DF901215420FFF7A3
:1087100059F98121FF20FFF755F979212020FFF732
:1087200051F9FF212020FFF74DF910BD10B582212E
:10873000FF20FFF747F901213620FFF743F92921F0
:108740003720FFF73FF906213820FFF73BF93021AA
:108750003920FFF737F98E213A20FFF733F98121CD
:10876000FF20FFF72FF9F7212020FFF72BF9FF213A
:108770002020FFF727F98721FF20FFF723F9142195
:108780003720FFF71FF900211320FFF71BF9802185
:108790001320FFF717F9642003F0C2FF00241FE045
:1087A0008721FF20FFF70EF91F20FFF7E6F800F002
:1087B000800080B12020FFF7E0F800F0800018B1C1
:1087C0000BA000F08BFF02E00FA000F087FF15A0C8
:1087D00000F084FF06E00CA000F080FF601CC4B233
:1087E0000A2CDDDB00BF16A000F078FF10BD0000F2
:1087F0004C543932313120747820706C6C206C6F9D
:10880000636B0D0A000000004C5439323131207482
:108810007820706C6C20756E6C6F636B65640D0AEC
:10882000000000004C543932313120747820706CD3
:108830006C2063616C20646F6E650D0A000000009F
:108840002073797374656D20737563636573730D3D
:108850000A00000010B540F2066003F0D1F84FF4B2
:10886000004302221021044801F09CFB4FF4004118
:10887000014801F047FB10BD0018014010B54FF44E
:108880000041024801F03EFB10BD0000001801400D
:1088900010B54FF40041024801F036FB10BD000056
:1088A0000018014010B540F2046003F0A9F84FF43D
:1088B000E06302224821024801F074FB10BD000071
:1088C0000010014070B50446642C01DD642402E010
:1088D000002C00DA00240D490C7000BF0CA000F041
:1088E00005FC0A4801780EA000F000FC00BFC4F1AE
:1088F0006400134909884843642190FBF1F52A4636
:108900000221104803F04FFB70BD00004A00002018
:108910003C3C4D595F44454255473E3E20000000D7
:108920004C63645F70776D5F6F757420675F6C6315
:10893000645F70776D203D2025640D0A0000000003
:1089400048000020002C014010B51021014801F022
:10895000DBFA10BD000C014010B51021014801F0F8
:10896000D1FA10BD000C014010B540F2036003F0D5
:1089700047F8102302221946034801F013FB102187
:10898000014801F0BFFA10BD000C014000BFFEE736
:1089900010B540F2056003F033F8402302221021A5
:1089A000034801F0FFFA4021014801F0ABFA10BD85
:1089B000001401407047000010B540F2046003F05D
:1089C0001FF80F2302221021054801F0EBFA0421C1
:1089D000034801F097FA0B21014801F095FA10BD08
:1089E0000010014010B50446002C08DD052C06DA05
:1089F000601E012202FA00F1014801F085FA10BD63
:108A00000010014010B50446012C04D1C1020848F1
:108A100001F01EFB10BD022C04D12102044801F01C
:108A200017FBF7E78021024801F012FBF2E7000094
:108A3000000C014010B540F2046002F0E1FF20217B
:108A4000044801F05FFA202302221021014801F0BE
:108A5000A9FA10BD0010014010B5044600BF07A0E0
:108A600000F044FB214609A000F040FB00BF14B118
:108A700000F03AF801E000F02FF810BD3C3C4D59F1
:108A80005F44454255473E3E200000005348544451
:108A9000425F35494E5F436F6E74726F6C5F536512
:108AA000744F757456616C20737461747573203DD6
:108AB0002025640D0A00000010B52021054801F0B2
:108AC000D3FA04460CB9012100E000210846FFF763
:108AD000C3FF10BD0010014010B52021014801F076
:108AE00011FA10BD0010014010B52021014801F01D
:108AF0000BFA10BD0010014010B540F2046002F006
:108B00007FFF4FF40061054801F0FCF94FF400636A
:108B100002221021014801F045FA10BD0010014069
:108B200010B5044600BF07A000F0E0FA214609A0F6
:108B300000F0DCFA00BF14B100F038F801E000F0FA
:108B40002BF810BD3C3C4D595F44454255473E3ED5
:108B50002000000053504B454E5F436F6E74726FA0
:108B60006C5F5365744F757456616C2073746174D7
:108B70007573203D2025640D0A00000010B54FF4E8
:108B80000061044801F070FA04462046FFF7C8FF70
:108B900010BD00000010014010B54FF40061024804
:108BA00001F0B2F910BD00000010014010B54FF403
:108BB0000061024801F0A6F910BD0000001001405C
:108BC00010B50446012C06D1C302022248210A48EE
:108BD00001F0E8F90EE0022C06D12302022248211E
:108BE000054801F0DFF905E0802302224821024810
:108BF00001F0D8F910BD0000000C014010B504468A
:108C0000012C06D1C302022210210A4801F0CAF940
:108C10000EE0022C06D1230202221021054801F0A9
:108C2000C1F905E0802302221021024801F0BAF9BF
:108C300010BD0000000C014010B500BF502080F3B3
:108C40001188BFF34F8FBFF36F8F00BF04F0A0FCFC
:108C500018B14FF080500449086000BF002080F335
:108C6000118800BF10BD000004ED00E010B51448ED
:108C7000006840F001001249086008464068114948
:108C800008400F494860084600680F4908400C49F1
:108C900008600846006820F48020086008464068A4
:108CA0000A490840064948600846006806490840E5
:108CB000034908604FF41F00886003F035F810BDC9
:108CC000001002400C00FFE8FFFFF6FEFFFF00F778
:108CD0007FB505460C464FF4E06002F091FE684611
:108CE00003F044FA0295ADF8004069464FF0804029
:108CF00003F0ACF94FF0804003F09DF901218807A3
:108D000003F018FA002207211C2002F075F8012157
:108D1000880703F00BFA7FBD38B5002500200090CE
:108D20000121880703F00AFA002855D0012188079D
:108D300003F000FA2948007800F001008DF80000E7
:108D40002648007800F002008DF8010023480078E2
:108D500000F004008DF802002048007800F00800C0
:108D60008DF80300002414E01D48005D04280CDA8F
:108D70001B48005D1B49085C48B91948005D1DF897
:108D80000010204601F088FB01E0681CC5B2601CA1
:108D9000C4B2272CE8DB002416E01248005D401C1A
:108DA000104908550846005D0F49095D884209DBF6
:108DB00000200C4908550120A04008490978484086
:108DC00006490870601CC4B2042CE6DB272D03D1D1
:108DD0004FF0804003F02FF938BD000070000020F4
:108DE000840100206C000020FCD7000870B5044608
:108DF00000250221094800F0BFFB084800F024FCD0
:108E00000546052322460021044800F0C7FB012146
:108E1000024800F01DFC284670BD000000240140FF
:108E20002DE9F04107460C460025002608E03846AB
:108E3000FFF7DCFF0544052003F072FC701CC6B28E
:108E4000A642F4DBB5FBF4F080B2BDE8F08100008F
:108E5000FFF78AFD00BF25E0FFF77EFD4FF4FA70B3
:108E600003F05EFCFFF770FD4FF4FA7003F058FC5E
:108E700000F020FF0C480078282805DA0A4800781E
:108E8000401C094908700DE007480078282809D1DE
:108E900001F040FA08B101F05FF903480078401C86
:108EA00001490870D8E700000500002010B50D4901
:108EB0000D4803F098FA30B10A490B4803F086FADE
:108EC00000F038F90DE00949074803F08CFA30B199
:108ED0000649054803F07AFA00F05CFC01E000F076
:108EE00045FA10BD050305000038014007030700DF
:108EF00010B51D491D4803F076FA88B11A491B4880
:108F000003F064FAFDF78CFE1948007850BB4FF46B
:108F10004171164803F04DFA01201549087021E00F
:108F20001449124803F05FFA30B112490F4803F0B8
:108F30004DFAFDF789FE15E00F490C4803F053FA8E
:108F400080B1FDF763FE0C49084803F03FFA08487A
:108F5000007838B14FF44171044803F01DFA002045
:108F60000349087010BD00000503050000440040DF
:108F70002800002007030700040304007CB5044612
:108F80000D460E4903C9CDE90001012C00DD7CBD71
:108F90000120A0400A490978084060B100BF5DF88F
:108FA0002400072103F0D9F90028F8D05DF8240047
:108FB000294603F080F900BFE9E70000E4D7000884
:108FC000060000202DE9F04107460D461646002414
:108FD00005E0295D3846FFF7D1FF601CC4B2B442FA
:108FE000F7DBBDE8F081F0B504460D464FF0FF37E2
:108FF0000CB93846F0BD681E265CC1B22046FDF7AC
:10900000F7FDB04200D100273846F3E700BFFEE786
:1090100010B540F2046002F0F3FC4021044800F077
:1090200071FF402302221021014800F0BBFF10BD58
:109030000010014010B5044600BF09A000F056F82A
:1090400021460BA000F052F800BF24B14021144883
:1090500000F05AFF03E04021114800F053FF10BD1B
:109060003C3C4D595F44454255473E3E2000000080
:109070005631325F43544C5F436F6E74726F6C288D
:109080004D4F525345295F4F757448696768207387
:109090007461747573203D2025640D0A0000000082
:1090A0000010014010B54021054800F0DDFF0446E6
:1090B0000CB9012100E000210846FFF7BBFF10BDFD
:1090C0000010014031B50A240A23012269460548EF
:1090D000006803F0E9FE40F20731034803F069F944
:1090E000009838BD1C000020004400400FB4054B20
:1090F00010B503A9044A029800F056F810BC5DF8B8
:1091000014FB00003D9C0008F00000200FB4084B49
:1091100010B504A902AA039800F046F8044602A973
:10912000002000F01DF9204610BC5DF814FB000083
:10913000619300081CB5084803F0B8F8C0B201906C
:10914000002000906B46012201A90448006803F04A
:1091500035FF9DF804001CBD003801400C000020C4
:1091600031B50A240A23012269460548006803F044
:109170009BFE40F20731034803F01BF9009838BD0D
:10918000080000200038014002E008C8121F08C192
:10919000002AFAD170477047002001E001C1121F78
:1091A000002AFBD1704700002DE9FF4F8BB09A4693
:1091B0000F460546002606E025280BD052460D999D
:1091C00090476D1C761C28780028F5D10FB03046EA
:1091D000BDE8F08F0024A0460122604900E004436E
:1091E00015F8013F203B02FA03F00842F7D1287836
:1091F0002E2817D115F8010F44F004042A280ED0A8
:109200006FF02F022878A0F1300109290AD808EB65
:10921000880102EB410100EB01086D1CF2E757F8F1
:10922000048B6D1C287869283ED006DC0028CDD040
:1092300063280BD0642804D136E0732810D0752839
:109240004BD052460D999047761C85E017F8040BD9
:109250008DF8000000208DF80100E946012003E0B0
:1092600057F8049B4FF0FF3061074FF0000401D422
:109270000AE0641C44450DDA8442FADB19F8041054
:109280000029F6D106E0641C8442FCDB19F80410C6
:109290000029F8D1264404E019F8010B52460D9933
:1092A0009047641EF8D257E001CF4FF00A0B002818
:1092B00002DA40422D2102E0210504D52B218DF850
:1092C0002410012103E0E10705D02021F7E70DF18B
:1092D000200908910CE00021F9E701CF4FF00A0BBB
:1092E000F9E75946FDF779F901F1300209F8012D46
:1092F0000028F6D1ADEB090000F1200B600701D486
:109300004FF00108D84502DDA8EB0B0000E000207B
:109310008046002406E009A85246005D0D9990475A
:10932000641C761C08988442F5DB04E03020524629
:109330000D999047761CB8F10001A8F10108F5DC01
:1093400005E019F8010B52460D999047761CBBF1C8
:109350000001ABF1010BF4DC6D1C34E709280100BE
:109360000A68531C0B6010707047000010B54FF472
:1093700042711A4803F037F840B119A000F0AEF975
:109380004FF44271154803F021F825E01C491348B9
:1093900003F029F838B11BA000F0A0F918490F48D4
:1093A00003F014F818E01E490C4803F01CF838B11B
:1093B0001CA000F093F91A49084803F007F80BE0E5
:1093C0002049064803F00FF830B11FA000F086F9DD
:1093D0001C49024802F0FAFF10BD000000380140AD
:1093E0002A2A2A2055534152542070617269747997
:1093F000206572726F7221202A2A2A0A000000005A
:10940000000501002A2A2A20555341525420667231
:10941000616D65206572726F7221202A2A2A0A0006
:10942000000503002A2A2A205553415254206F7602
:10943000657272756E206572726F7221202A2A2AF7
:109440000A000000000502002A2A2A205553415232
:1094500054206E6F697365206572726F7221202AC5
:109460002A2A0A00816841F00801816000BF8168F2
:1094700001F008010029FAD1816841F004018160FE
:1094800000BF816801F004010029FAD1704730B5AE
:10949000012902D002291AD10CE0C36A23F4700317
:1094A000C362C36A541E4FF4700505EA0454234393
:1094B000C3620DE0836B23F440138363836B541EFC
:1094C0004FF4401505EA04542343836300E000BFD2
:1094D00000BF30BD21B1826842F40062826003E0C7
:1094E000826822F400628260704730B5436823F4DA
:1094F000C0534360012904D0022913D0042916D196
:1095000016E0436823F4604343604368541E4FF4FD
:10951000604505EA443423434360436843F40063F1
:10952000436006E0436843F48053436001E000BFBA
:1095300000BF00BF30BD816801F0010119B9816829
:1095400041F0010181607047012902D0022910D148
:1095500007E0836823F46023836083681343836098
:1095600008E0836823F4E0438360836813438360E7
:1095700000E000BF00BF704702688A430260704786
:109580000549096821F47021034A116011460968F0
:10959000014311607047000004240140F0B51D46EE
:1095A00006290CDA436B01EB81071F26BE40B3434B
:1095B00001EB810602FA06F63343436322E00C29ED
:1095C0000EDA036B8E1F06EB86071F26BE40B343E1
:1095D0008E1F06EB860602FA06F63343036311E09C
:1095E00010290FDAC36AA1F10C0606EB86071F26C5
:1095F000BE40B343A1F10C0606EB860602FA06F65E
:109600003343C3620A2A0CDA046902EB42070726D5
:10961000BE40B44302EB420605FA06F63443046149
:1096200011E0122A0FDAC468A2F10A0606EB460717
:109630000726BE40B443A2F10A0606EB460605FA29
:1096400006F63443C460F0BD0146C86C80B2704772
:1096500001F001021AB1826842F48002826001F0D6
:1096600002021AB1826842F4001282607047AAB105
:1096700001F480731BB1436843F48073436001F4C9
:1096800080631BB1436843F48063436001F00203CD
:10969000CBB1836843F00203836014E001F480736C
:1096A0001BB1436823F48073436001F480631BB1F2
:1096B000436823F48063436001F002031BB18368B5
:1096C00023F00203836070470348006840F4000001
:1096D00001490860704700000824014010B50446A5
:1096E00004B910BD03E014F8010BFFF739FD207831
:1096F0000028F8D100BFF4E77FB505460E460020EC
:1097000000900190029003908DF80F000A2E13D163
:109710000E240CE00A20B5FBF0F100FB11503030B4
:109720000DF804000A20B5FBF0F5601EC4B2102C41
:1097300023DA002DEED120E00E2417E005F00F0013
:109740000DF804001DF804000A2806DA1DF80400CC
:109750003030C0B20DF8040005E01DF804005730A9
:10976000C0B20DF804002D09601EC4B2102C01DA3D
:10977000002DE3D105A0FFF7B1FF0DEB0401481C5C
:10978000FFF7ACFF02A0FFF7A9FF7FBD20307800F4
:10979000200000001CB5002000901048006803F075
:1097A0008BFA04462CB940F207310D4802F0F4FD63
:1097B0001CBD6B46012201A90848006803F029FB83
:1097C00028B19DF804100020FFF7D8FB04E040F218
:1097D0000731034802F0E0FD00BFE9E70800002080
:1097E000003801402DE9F04707463E460EB900BF5C
:1097F000FEE71B480068864201D100242DE002F0FC
:10980000D9FE75691748D0F800801748D0F8009045
:1098100002F0F2FE454501D04D4501D102241CE085
:109820001248854212D1B06A70B90324002007E0C3
:1098300006F15401095C012901D1022402E0401C17
:109840000128F5DB00BF08E0022406E00848854255
:1098500000D00DB9042400E001242046BDE8F087C3
:109860008000002084000020880000206003002089
:109870004C0300200EB50020029002A80021022314
:109880000A46CDE900100448006803F0F7FC4FF4E5
:10989000805000F05FF80EBD1400002010B52C4B76
:1098A0001B6883432A4C2360231D1B688343241DAC
:1098B0002360231D1B688343241D2360231D1B6815
:1098C0008343241D236011B101290ED105E0204BF3
:1098D0001B6803431E4C236008E01D4B1B1D1B68C7
:1098E00003431B4C241D236000E000BF00BF22B1D6
:1098F000012A0FD0022A27D119E0154B08331B6823
:109900000343134C08342360231D1B688343241D29
:1099100023601AE00E4B08331B6883430C4C083459
:109920002360231D1B680343241D23600DE0084BA7
:1099300008331B680343064C08342360231D1B684F
:109940000343241D236000E000BF00BF10BD0000E2
:1099500000040140024909688143014A11607047CF
:1099600000040140024909680143014A116070473F
:1099700000040140014908607047000014040140E0
:1099800001460748006800EA0102054814380068EB
:1099900000EA010312B10BB1012070470020FCE77F
:1099A0001404014000B50346012200BF00F00CF88A
:1099B00002465B1E012A01D1002BF7D1012A00D1FA
:1099C0000422104600BD000000200A49C96801F0C9
:1099D000010109B101200CE00649C96801F010013C
:1099E00009B1032005E00349C96801F0040101B190
:1099F000022070470020024000B50346012200BF4C
:109A000000F00CF802465B1E012A01D1002BF7D1B1
:109A1000012A00D10422104600BD000000200A499E
:109A2000C96C01F0010109B101200CE00649C96CC3
:109A300001F0100109B1032005E00349C96C01F0F0
:109A4000040101B1022070470020024070B50446B5
:109A50000D4600262A480088B0F5007F35D22948F7
:109A6000844219D24FF47020FFF79CFF0646002E67
:109A700043D12548006940F0010023490861258051
:109A80004FF47020FFF78EFF06461F48006920F054
:109A900001001D49086130E04FF47020FFF7ACFF72
:109AA000064656BB1848006D40F00100164908658F
:109AB00025804FF47020FFF79FFF06461248006D87
:109AC00020F001001049086517E04FF47020FFF7FF
:109AD00069FF06468EB90C48006940F001000A494A
:109AE000086125804FF47020FFF75CFF06460648AA
:109AF000006920F0010004490861304670BD000093
:109B0000E0F7FF1FFFFF07080020024030B50546C1
:109B100036480088B0F5007F48D9354885421ED2C6
:109B20004FF47020FFF73EFF0446002C5BD1314814
:109B3000006940F002002F4908610846456100694C
:109B400040F0400008614FF47020FFF72BFF0446FF
:109B50002848006920F002002649086143E04FF4DC
:109B60007020FFF749FF0446002C3CD12148006DCE
:109B700040F002001F49086508464565C06900F0CD
:109B8000020008B1084645611A48006D40F04000E7
:109B9000184908654FF47020FFF72EFF044615485A
:109BA000006D20F00200134908651CE04FF470209E
:109BB000FFF7F8FE0446B4B90E48006940F0020011
:109BC0000C49086108464561006940F040000861A1
:109BD0004FF47020FFF7E6FE04460648006920F0C7
:109BE000020004490861204630BD0000E0F7FF1F75
:109BF000FFFF0708002002400C48006900F08000C9
:109C000020B10B48094948600A4848600A48008862
:109C1000B0F5007F09D90548006D00F0800020B143
:109C200003480249486403484864704700200240E2
:109C300023016745AB89EFCDE0F7FF1F70B5044600
:109C40000D462046FFF78CFA204670BD30B502461F
:109C50000B46164C002145F25550154D286000BFAB
:109C60001348C06800F00101601E041E01D00029E5
:109C7000F6D109B1002030BD0D4843600B4C00BF48
:109C80000B48C06800F00201601E041E01D00029CC
:109C9000F6D109B10020EEE7C2F30B00044DA86035
:109CA0004AF6AA2028600120E5E70000FFFF0F0028
:109CB000003000404AF6AA200149086070470000C1
:109CC000003000404CF6CC4001490860704700006D
:109CD0000030004045F255500149086070470000CF
:109CE0000030004070B504460D46324E012C00D1C4
:109CF000314E0120A04031490978084000B170BDC3
:109D00002F4931F8140001F07BFE2E4931F8140080
:109D100001F076FE2C4951F824302C4951F82400EA
:109D20000222182100F03EF9294951F82430274930
:109D300051F824000222042100F034F9304602F0E8
:109D4000BFFA2946304602F069FA0021304602F097
:109D500086FB0021304602F072FB0021304602F003
:109D60005EFB0021304602F00FFB0021304602F07E
:109D700003FB0421304602F05AFB0821304602F072
:109D800066FB304602F0E4FA40F20531304602F05C
:109D900010FB104A115D104A12F82400002201F055
:109DA0002BF80120A04005490978084303490870B1
:109DB00000BFA4E700380140004400400600002036
:109DC000D4D70008B8D70008BCD70008CCD7000803
:109DD000C4D70008E0D70008D8D7000810B503485A
:109DE00000F03EF9C0F30224204610BD00100140EF
:109DF00001480078704700005000002010B500BFF7
:109E000006A0FFF773F90948B0F9001008A0FFF7A2
:109E10006DF900BF0548B0F9000010BD3C3C4D593C
:109E20005F44454255473E3E200000004C00002064
:109E30006765745F696E7465726E616C5F74656D81
:109E4000702020675F696E745F74656D70203D20BF
:109E500025640D0A0000000070B50446282C01DDC1
:109E6000FF2070BD601EC4B20548224660C8284667
:109E70003146FCF7AFF901210840C0B2F1E700001C
:109E80006000002016A0FFF731F91A4800684088EA
:109E90004FF6FF71884205D1FFF7AEFEFF2116484D
:109EA000FFF7D4FD00BF00BF00BF00BF00BFBFF37E
:109EB0004F8F00BF00BF00BF1048006800F4E06093
:109EC0000F490843001D0D49086000BF00BF00BFD7
:109ED000BFF34F8F00BF00BF00BF00BF00BFFDE753
:109EE000676F746F5F6F74615F7570646174652014
:109EF0000D0A000078000020025C00080CED00E074
:109F00000000FA05416170470161704710B50022F9
:109F10008B071C0F0F2303FA04F204290EDA204BDF
:109F20009B6893431E4CA36023469B688C07240FB9
:109F300000FA04F423431A4CA3602FE008290EDA38
:109F4000174BDB689343164CE3602346DB688C07B2
:109F5000240F00FA04F42343114CE3601EE00C29A3
:109F60000EDA0F4B1B6993430D4C236123461B698B
:109F70008C07240F00FA04F42343094C23610DE0FD
:109F8000074B5B699343064C636123465B698C070F
:109F9000240F00FA04F42343014C636110BD000058
:109FA00000000140F0B5044616460025002201F0ED
:109FB0000F0501F0100707B1354300201EE001270F
:109FC00087401F40C7B122684FEA800C0F2707FA6D
:109FD0000CF7BA43870005FA07F73A43282904D15A
:109FE000012787401F40676105E0482903D1012709
:109FF00087401F4027612260471CB8B20828DED383
:10A00000082022E0012787401F40E7B16268A0F1E5
:10A0100008074FEA870C0F2707FA0CF7BA43A0F19D
:10A020000807BF0005FA07F73A43282904D101279A
:10A0300087401F40676105E0482903D10127874019
:10A040001F4027616260471CB8B21028DAD3F0BD08
:10A0500002469068084008B1012070470020FCE7E4
:10A060000146886880B270470246D068084008B14F
:10A07000012070470020FCE70146C86880B27047A5
:10A08000F0B50A46002300240021002500F0004618
:10A09000B6F1004F02D11D4EF16901E01B4E71680F
:10A0A000C0F3034583B200F44016B6F5401F08D153
:10A0B00021F07061154E766826F07066134F7E6051
:10A0C00012E000F48016B6F5801F06D1032606FACA
:10A0D00005F4A14341F0706106E0460D360103FA34
:10A0E00006F6B14341F0706122B1460D360103FA24
:10A0F00006F6314300F00046B6F1004F02D1034EA0
:10A10000F16101E0014E7160F0BD0000000001400E
:10A11000C160704710B500200649087006A0FFF71F
:10A12000DDFA0AA003F0ECF918B10A48006802F061
:10A130001BFB10BD50000020686172645F7774647F
:10A140005F64697361626C650D0A0000687774640E
:10A1500000000000540000201CB50E48007818B123
:10A160000DA0FFF7BBFA1CBD01201549087015486A
:10A1700000881549088015A0FFF7B0FA1848022199
:10A1800000234022CDE9001016A1184802F0AAFFD2
:10A1900000BFE8E75100002064656275675F646F87
:10A1A000776E5F777467206973207365742C6E6FA8
:10A1B0007420656E61626C65207774670D0A00001B
:10A1C00050000020580000205A000020686172648E
:10A1D0005F7774645F656E61626C650D0A000000F4
:10A1E00054000020687774640000000005A2000895
:10A1F000024800880249088070470000580000208B
:10A200005A00002015E00B48007878B10A48008811
:10A2100060B109480088401E074908800846008848
:10A2200020B906A0FFF75AFA00F052F8642002F0B5
:10A2300077FAE8E7500000205A0000206861726455
:10A240005F7774645F666565645F7461736B2074C7
:10A25000696D656F75740D0A000000000148008883
:10A26000C0B270475800002010B540F2026001F003
:10A27000C7FB80211548FFF745FE40211348FFF733
:10A2800043FEE023022210211048FFF78BFE10232B
:10A29000022248210D48FFF785FE4FF4C06001F00F
:10A2A000AFFB04210020FFF731FE01220021102026
:10A2B000FFF7F4FA1020FFF755FB1020FFF75AFBC9
:10A2C000022201210A2000F097FD10BD0008014084
:10A2D00010B504210848FFF715FE40210748FFF795
:10A2E00011FEC82002F01CFA40210448FFF70CFEC2
:10A2F000FFF710FF10BD00000010014000080140F2
:10A30000024908800988024A1180704758000020DD
:10A310005A00002010B5094800680078FF2801D1D4
:10A32000012000E0002004461CB105A0FEF7DEFE7F
:10A3300002E00CA0FEF7DAFE204610BD7C000020F3
:10A340007761746368646F675F737461727475704A
:10A350005F696E666C617368206973206F6E21217E
:10A36000210D0A007761746368646F675F737461BD
:10A37000727475705F696E666C61736820697320B2
:10A380006F66662323232321212121212121210DF1
:10A390000A00000010B5FFF79DFCFFF78BFC0321BE
:10A3A00040F6FF70FFF752FCFFF78CFC10BD000079
:10A3B000044604210948FFF7A5FDFFF78BFC24B9EB
:10A3C0000121FF20FFF742FC04E0042140F6FF706A
:10A3D000FFF73CFCFFF776FC00BFFEE700100140F2
:10A3E00010B50B480078642803DBFF20094908708A
:10A3F00005E00748007810B90120064908700549B2
:10A40000097801EB8101490048B2FDF7C5FD10BD97
:10A41000740000207500002010B504462146282055
:10A4200000F014F810BD000010B504462CB14FF434
:10A4300080710548FFF768FD04E04FF48071024821
:10A44000FFF760FD10BD00000018014070B5044624
:10A450000E46012C01DB282C00DD70BD601EC4B24D
:10A46000272C0DD14FF0804001F0E5FD002504E0E0
:10A47000052008494855681CC5B2282DF8DB02E0C4
:10A480000520044908553146204600F005F800BF74
:10A49000E3E700008401002070B504460D46282C37
:10A4A00004DA611CC8B200F08DF800E070BDB5B1EF
:10A4B0004FF480411A48FFF727FD272C05D14FF0B4
:10A4C000FF30184A106050601FE00120A040C11703
:10A4D000144B0CCB10431943124A03C215E04FF43E
:10A4E00080410F48FFF70EFD272C04D100210D4AB3
:10A4F0001160516009E00120A040C043C117094B21
:10A500000CCB10401940074A03C20120FFF78CFF13
:10A510001E20FDF709F80020FFF786FF00BFC5E702
:10A52000001401406000002070B540F2056001F0A9
:10A5300067FA4FF49043022210211E48FFF732FDC4
:10A540004FF490411B48FFF7DDFC40F2066001F03C
:10A5500057FA7C252B46022210211748FFF722FDCF
:10A5600029461548FFF7CEFC4FF480711248FFF7DB
:10A57000C9FC4FF48073022210210F48FFF712FD2F
:10A580006420FDF729FD0D48006842F21071B0FB10
:10A59000F1F0401E86B2314640F2E730FEF798FBFC
:10A5A000002404E0052006490855601CC4B2282C8C
:10A5B000F8DB70BD0014014000180140EC000020E1
:10A5C0008401002070B504460E48FFF755FD05468E
:10A5D00025F07C0504F03E0045EA4005294609487F
:10A5E000FFF796FD04F0010028B14FF40061064822
:10A5F000FFF78AFC04E04FF400610348FFF782FC98
:10A6000070BD0000001801400014014030B587B053
:10A61000044640F2036001F0F3F94FF400430222D4
:10A6200018212B48FFF7BEFC40F20B6001F0E8F95F
:10A63000642C00DD64242748047003A801F096FD13
:10A6400025480088401E0590244800682449B0FB36
:10A65000F1F0401E80B2ADF80C0003A9214801F0D2
:10A66000F5FC684601F0DFFC0420ADF802006A4604
:10A6700002211C4801F074FB70220221194801F0EC
:10A6800065FCC4F16400144909884843642190FBC7
:10A69000F1F52A460221134801F085FC002202212F
:10A6A000104801F093FC01210E4801F053FD0D48C4
:10A6B00001F051FB4FF48043022210210448FFF7C0
:10A6C00071FC4FF480410248FFF71CFC07B030BD1D
:10A6D000000C01404A00002048000020EC0000204F
:10A6E00040420F00002C014010B54FF48071064825
:10A6F000FFF708FC642002F013F84FF48071024861
:10A70000FFF702FC10BD00000014014010B540F23C
:10A71000056001F075F94FF480730222102104489E
:10A72000FFF740FC4FF480710148FFF7EDFB10BDCF
:10A730000014014070B50446A61104F03F00401E0D
:10A74000C4B2282C10DA4FF0804001F079FC272C9D
:10A7500008D1002503E005484655681CC5B2282DE0
:10A76000F9DB01E00148065570BD000084010020BE
:10A7700010B58221FF20FDF725F938213B20FDF798
:10A7800021F910BD10B58121FF20FDF71BF9FB2138
:10A790000D20FDF717F90A2001F0C2FFFF210D205F
:10A7A000FDF710F910BD00001CB54FF4C0414FF08B
:10A7B000006000F081FBFDF711FDFCF7FBF925A01F
:10A7C000FEF78CFF29480068FEF788FF26A0FEF7F9
:10A7D00085FF0020022103466022CDE9001024A15C
:10A7E000264802F07FFC0020022103468022CDE9AA
:10A7F000001023A1244802F075FC00200421034628
:10A800005022CDE9001021A1224802F06BFC224821
:10A81000042100238022CDE9001020A1214802F06C
:10A8200061FC2148032100238022CDE900101FA1F3
:10A83000204802F057FC0020022103464022CDE9C7
:10A8400000101DA11E4802F04DFC02F047F900BFA8
:10A85000FEE700006672656572746F73202C2069D4
:10A860006E6974206F6B21210D0A0000000000202A
:10A870005461736B4C65643100000000518E000818
:10A880006465627567720000E17300086C743932A8
:10A89000313100006D84000824000020546F4370A3
:10A8A0007500000039740008140000206B65795FA2
:10A8B000626F640031BD000874656D7000000000B7
:10A8C0007D7F00087CB505461DA00068019000262C
:10A8D0000120A840C6B2334601220021022000F028
:10A8E00072FA00231A461946022000F06CFA01AAF7
:10A8F0000021022000F056FA6B4600221146022089
:10A9000000F039FA58B99DF8000000F03F0020B17E
:10A910009DF8000000F03F0405E07F2403E009A05B
:10A92000FEF7E4FBFF2400208DF80400FF208DF8E3
:10A93000050001AA0021022000F034FA20467CBD67
:10A94000FF0000004552524F523A204B45595F528A
:10A950004F575F5343414E206E6361393535355F44
:10A96000726561645F696E706F72740D0A00000039
:10A9700008B51EA000680090022000F0F6F96A46B3
:10A980000021022000F00EFA00231A461946022088
:10A9900000F019FA40F2036001F032F84FF4C060A1
:10A9A00001F02EF84FF48053022248211048FFF79F
:10A9B000F9FA0C210120FFF7A9FA01220021100366
:10A9C000FEF76CFF4FF48050FEF7CCFF4FF4805041
:10A9D000FEF7D0FF00220721282000F00DFA00F03A
:10A9E0000BF890210348FBF71EFC08BD00FF000098
:10A9F000000C0140F400002008B56B460122002144
:10AA0000022000F0B8F960B99DF8000000F03F00A6
:10AA10003F2804D09DF8000000F03F0008BD3F2013
:10AA2000FCE702A0FEF762FBFF20F7E74552524F1A
:10AA3000523A204B45595F524F575F5343414E2086
:10AA40006E6361393535355F726561645F696E705B
:10AA50006F72740D0A0000002DE9F0474FF00008F6
:10AA6000C146FFF7C9FF8046B8F13F0F79DA0026EB
:10AA700070E06548835D00221146022000F0A3F9D2
:10AA800020B1314661A0FEF731FB61E0FFF7B4FF72
:10AA90008046B8F13F0F03DB09F1010000F0FF0928
:10AAA000002752E0062000FB0670C4B248FA07F007
:10AAB00000F0010020BB624830F81400022842DA9E
:10AAC0005F4830F81400401C81B25D4820F8141033
:10AAD00030F81400022836D1012059494839085568
:10AAE000611CC8B2012100F0BBFF5648007818B1C4
:10AAF000611C55A0FEF7FAFA01205849087022E0BF
:10AB00004F484838005DF0B13846FFF7DBFE054698
:10AB10003F2D14DB00204A4948390855611CC8B252
:10AB2000002100F09DFF4748007818B1611C4CA03F
:10AB3000FEF7DCFA0021424820F8141003E0294611
:10AB4000384600F0A5F8781CC7B2062FAADB00BF74
:10AB5000701CC6B2062E8CDBB9F1060F4ADB00244E
:10AB60000CE00EE02046FFF7ADFE05463F2D03DA70
:10AB70002946204600F08CF8601CC4B2062CF1DB9C
:10AB800038E036480078A8B300242EE02C48483836
:10AB9000005D00B3062094FBF0F100FB1140C7B24A
:10ABA0003846FFF78FFE05463F2D18DB002024496D
:10ABB00048390855611CC8B2002100F051FF2148F6
:10ABC000007818B1611C2CA0FEF790FA00211C48F7
:10ABD00020F8141003E02946384600F059F8002107
:10ABE000174820F81410601CC4B2242CCEDB0020BF
:10ABF0001A49087000231A461946022000F0E3F8AB
:10AC00000020BDE8F0870000ECD700084552524F05
:10AC1000523A204B45595F524F575F5343414E20A4
:10AC20006E6361393535355F77726974655F6F754D
:10AC300074706F727420693D25640D0A0000000075
:10AC40003C010020100000202D2D2D2D62746E3A45
:10AC500025642070726573730D0A000018000020CF
:10AC60002B2B2B2B62746E3A25642072656C656108
:10AC700073650D0A000000002323232362746E3ADB
:10AC800025642072656C656173650D0A0000000023
:10AC90002DE9F04107460E460EB13F2E01DBBDE81F
:10ACA000F081052F00DDFAE700253CE0062000FBDF
:10ACB0000570C4B2232C00DD33E046FA05F000F045
:10ACC0000100B0B11A48005D002829D101201849BF
:10ACD0000855611CC8B2012100F0C2FE1548007879
:10ACE00018B1611C14A0FEF701FA01201749087081
:10ACF00016E00F48005D98B100200D490855611C11
:10AD0000C8B2002100F0ACFE0A48007818B1611CFE
:10AD10000FA0FEF7EBF900210548483020F8141089
:10AD200000BF681CC5B2062DC0DB00BFB7E700003E
:10AD3000F4000020100000204023402362746E3A8B
:10AD400025642070726573730D0A000018000020DE
:10AD500040404062746E3A25642072656C65617390
:10AD6000650D0A000020FFF723FB10B504462046BE
:10AD7000FCF77CFF10BDF8B506460D4614461F468D
:10AD800005F00E0545F040050CB1012000E0002063
:10AD900004460120E2B23B46294600903046FCF7CB
:10ADA000C7FFF8BDF8B506460C46154604F00E047C
:10ADB00044F0400402202B460622214600903046F3
:10ADC000FCF7E4FFF8BD7FB582B006460C46154699
:10ADD00004F00E0444F040040DB1012000E0002016
:10ADE000054601200090A81CC2B205AB21463046A2
:10ADF000FCF7CCFF06B070BD2DE9F04103460D46CF
:10AE0000164600240027A0462448006800F4E060AD
:10AE1000B0F5A06F15D006DCB0F5407F18D0B0F5C6
:10AE2000806F19D110E0B0F5C06F06D0B0F5E06FBB
:10AE300012D100274FF0040815E001274FF0030856
:10AE400011E00227B8460EE003274FF001080AE0A0
:10AE500004274FF0000806E04FF4A06000F022F84D
:10AE60000227B84600BF00BFC7F1040005FA00F48E
:10AE7000C8F104010F20C8403040044324010848B1
:10AE8000C45403F01F01012088405911890001F1C9
:10AE9000E021C1F80001BDE8F08100000CED00E008
:10AEA00000E400E002490143024A116070470000DB
:10AEB0000000FA050CED00E0024A0A400243024B92
:10AEC0001A60704780FFFF1F08ED00E02DE9F04198
:10AED00005460E461C4807681C480068001D01F026
:10AEE000C6FA50B91948006890F82C100120884023
:10AEF00017490968814316480160681C38B936B1A2
:10AF000012480168091D134801F048FB1AE07C193A
:10AF10000E4800684460BC4207D20C480168091D15
:10AF20000D48006801F020FB0CE008480168091D8D
:10AF30000A48006801F018FB09480068844201D201
:10AF400007480460BDE8F0819400002080000020E4
:10AF5000980000206003002088000020840000206A
:10AF6000B000002010B5044601F024FB244800681E
:10AF7000401C234908602348006840B92148046008
:10AF80000846006801280DD100F04CF90AE01E487F
:10AF9000006838B91B480068C06AE16A884201D875
:10AFA0001848046019480068401C184908600846A1
:10AFB0000068206494F82C10012088401449096826
:10AFC000084313490860E16A01EB8101114A02EB71
:10AFD0008100211D01F0E2FA01F00EFB0A48006831
:10AFE00068B108480068C06AE16A884207D24FF039
:10AFF000805009490860BFF34F8FBFF36F8F10BDBA
:10B0000090000020800000209C000020AC00002068
:10B0100098000020AC02002004ED00E00146D1E9D8
:10B020000132D0180A68801A8A68824201D88A6878
:10B03000801A704710B516E001F0BCFA0C48C068E1
:10B04000C468201D01F013FA0A480068401E09492F
:10B05000086009480068401E0749086001F0CCFA02
:10B06000204600F00BF8044800680028E4D110BD29
:10B070004C030020900000208C00002010B50446F6
:10B08000206B01F0CFFA204601F0CCFA10BD000091
:10B0900030B54FF42053174800F007042CB1C01D01
:10B0A00020F00700134C041B1B1B0246124C2260AD
:10B0B0000024114D6C60D018083820F007000F4CA8
:10B0C000206000240D4D2D686C600C4D2D682C60A7
:10B0D0001146441A4C60094C24680C60084D4C68B9
:10B0E0002C60084D4C682C604FF00044064D2C60DD
:10B0F00030BD000074030020CC000020D4000020EC
:10B10000DC000020D8000020E800002000BFFFF78E
:10B1100091FF064800680128F9D94FF08050044992
:10B120000860BFF34F8FBFF36F8FF0E7AC020020D2
:10B1300004ED00E02DE9F04704460D4616461F4693
:10B14000DDF820804FF05509324655212846FBF79F
:10B150006CF8A84201D1012000E0002008B900BF2E
:10B16000FEE724212046FBF75EF8A561A660E760B4
:10B1700084F81C80BDE8F0872DE9F05F82460E461A
:10B1800090469B460A9F0C9C4FEA8801A522206BA3
:10B19000FBF742F8A8F10100216B01EB800929F0CF
:10B1A000070909F0070008B9012000E0002008B9EC
:10B1B00000BFFEE786B1002507E0715D04F13400B1
:10B1C0004155705D00B902E06D1C0A2DF5D300BF3A
:10B1D00000213D20015502E0002084F83400052FB5
:10B1E00000D30427E762A7640020E064201D01F07B
:10B1F000B8F904F1180001F0B4F92461C7F10500B1
:10B20000A06164620020206584F854005A465146CB
:10B21000484600F0C5FA20600B9808B10B9804600E
:10B22000BDE8F09F10B5002407E004EB84010F4A4D
:10B2300002EB810001F088F9641C052CF5D30C4861
:10B2400001F082F90B4801F07FF90B4801F07CF91D
:10B250000A4801F079F90A4801F076F904480949E9
:10B26000086004480849086010BD0000AC020020D6
:10B270001003002024030020380300204C0300208A
:10B2800060030020840000208800002010B50146E3
:10B29000164800E0006803688B42FBD3024643680F
:10B2A00013448B4204D143684C68234443600146F5
:10B2B0000A464B6813440468A34211D10C4C03683E
:10B2C0002468A34208D04B680468646823444B6038
:10B2D00003681B680B6005E0054B1B680B6001E011
:10B2E00003680B60884200D0016010BDCC000020D4
:10B2F000D40000202DE9F04707460C469046002672
:10B30000206848B3204641684968416000F108015F
:10B3100042688A4202D14168496841604168D1F877
:10B320000C9000BF204641684968416000F1080167
:10B3300042688A4202D14168496841604168CD68EB
:10B3400006EBC60007EB800143460122284601F0C8
:10B35000F5FA761C4D45E5D13046BDE8F0872DE97C
:10B36000F0470446894690469A46C24501D2504667
:10B3700000E040460646002E38D02568A068401BF5
:10B38000B04202D2A068401B00E030460746474565
:10B3900001D8012000E0002008B900BFFEE7E8194D
:10B3A000A168884201D8012000E0002008B900BF50
:10B3B000FEE7A06941193A464846FAF71BFFBE422C
:10B3C0000DD9464501D8012000E0002008B900BF92
:10B3D000FEE7F21B09EB0700A169FAF70BFF354402
:10B3E000A068A84201D8A0682D1A25603046BDE8A3
:10B3F000F0872DE9F84F05468A46164698460A9F7B
:10B4000087B1D5F8009043463A4669462846FFF78B
:10B41000A6FF009CA8EB0708B44204D9C5F8009029
:10B42000002400E034464346224651462846FFF7B2
:10B4300096FF83465846BDE8F88F0000094800682B
:10B44000006808B9012000E0002020B14FF0FF3073
:10B450000549086005E003480068C06800680249C3
:10B460000860704784000020B00000202DE9F04300
:10B4700002460D460027106800284CD01046D0F830
:10B480000480D8F80480C0F8048000F10808D0F8DF
:10B490000490C14505D1D0F80480D8F80480C0F8E4
:10B4A0000480D0F80480D8F80C6000BF1046D0F8B3
:10B4B0000480D8F80480C0F8048000F10808D0F8AF
:10B4C0000490C14505D1D0F80480D8F80480C0F8B4
:10B4D0000480D0F80480D8F80C104FF0000C002342
:10B4E00011E001F13400C45CE85CA04202D04FF0EE
:10B4F000010C03E014B90F464FF0010CBCF1000F32
:10B5000000D002E05B1C0A2BEBD300BF07B101E0C7
:10B51000B142CBD100BF3846BDE8F08302460021DE
:10B5200001E0521C491C1078A528FAD0890888B27D
:10B53000704700000A480068401C08B9012000E07C
:10B54000002008B900BFFEE700BF502080F311883B
:10B55000BFF34F8FBFF36F8F00BF00BFFEE7000048
:10B56000C00000202DE9F0410446884616460EB181
:10B57000012000E0002008B900BFFEE76568A06870
:10B58000401BB04202D2A068401B00E03046074694
:10B59000E819A168884201D8012000E0002008B91C
:10B5A00000BFFEE7A16948193A464146FAF722FE74
:10B5B000BE420FD9F01BA168884201D8012000E0EB
:10B5C000002008B900BFFEE7F21B08EB0701A069E5
:10B5D000FAF710FE3544A068A84201D8A0682D1AD9
:10B5E00065603046BDE8F0812DE9FF470746884693
:10B5F0001D46DDF830900DB9002416E0387F00F0CC
:10B60000010040B901240298A84201D2029800E04A
:10B610002846029009E04D4506D30124042202A9E0
:10B620003846FFF79FFF00E0002434B1414638461A
:10B63000029AFFF797FF064600E00026304604B066
:10B64000BDE8F08770B505460E4631462846FAF744
:10B65000FCFD2846FAF7F2FD044602E020202855BA
:10B66000641C092CFAD300202855281970BD00004D
:10B670002DE9F04104464FF0000801F06FFA42480E
:10B68000006808B9FFF704FD404800682040002822
:10B690006CD1F4B104F10800A0421AD9083404F0C6
:10B6A0000700B8B104F00700C0F108002044A04230
:10B6B0000DD904F00700C0F10800044404F00700AD
:10B6C00008B9012000E0002020B900BFFEE70024F7
:10B6D00000E00024002C49D02D480068844245D861
:10B6E0002C4E3046056801E02E462D686868A04261
:10B6F00002D228680028F7D123480068854235D057
:10B70000306800F10808286830606868001B10285D
:10B7100010D92F1907F0070008B9012000E0002018
:10B7200008B900BFFEE76868001B78606C603846A7
:10B73000FFF7ACFD164968680968081A14490860E3
:10B740000846006814490968884203D21048006816
:10B75000114908600D49686809680843686000205D
:10B7600028600E480068401C0C49086001F0AAFFE0
:10B7700008F0070008B9012000E0002008B900BF68
:10B78000FEE74046BDE8F081D4000020E80000203C
:10B79000D8000020CC000020DC000020E0000020C9
:10B7A000001F4FF080730360001F21F0010303604E
:10B7B000001F034B036014380260203870470000FC
:10B7C00035B5000810B509A0FDF788FF15A0FDF7F5
:10B7D00085FF214801F000F91F48FDF77FFF1FA0FA
:10B7E000FDF77CFF1EA0FDF779FF10BD2D2D2D2D3F
:10B7F0002D2D2D2D2D2D2D2D2D2D2D2D2D2D2D2D79
:10B800002D2D7461736B20696E666F2D2D2D2D2D7E
:10B810002D2D2D2D2D2D2D2D2D2D2D2D2D2D2D0D78
:10B820000A0000005461736B4E616D652020546105
:10B83000736B5374617465205072696F72697479A7
:10B8400020204C656674537461636B2020546173CF
:10B850006B4E756D200D0A00AC0100200D0A000032
:10B860002020423A20426C6F636B2020523A2052D3
:10B87000656164792020443A2044656C65746520D4
:10B8800020533A2053746F702020583A2052756E1E
:10B89000200D0A000F4A51680F4A1140082814D29F
:10B8A000DFE800F004050607130A130B00BF00BF12
:10B8B00000BF41EA803109E000BF20F004004FF0F2
:10B8C000805242EA8032114300E000BF00BF014ACB
:10B8D0005160704700100240FF3FFFEF2DE9F04F2D
:10B8E0008BB00746002009903EA090E8004CC0684D
:10B8F000CDE905BECDF810A007900FF2EC0ADAE909
:10B90000000ACDE9020A0FF2E00ADAE9000ACDE9FD
:10B91000000A38484068C0F381000A900A9820B1B4
:10B92000012804D0022829D103E0334928E0324914
:10B9300026E03048406800F48038B8F5803F09D1EF
:10B940002D4C2C48406800F40039B9F5003F02D175
:10B95000641000E0294C27484068C0F38342254822
:10B96000406800F0006008B142F010020F2A01D2D6
:10B97000921C00E0521C04FB02F101E01E4900BFD2
:10B9800000BF1C484068C0F3031504A8465D21FAB7
:10B9900006F318484068C0F3022502A8465D23FA62
:10B9A00006FC14484068C0F3C2251DF8056023FA60
:10B9B00006F0089037B1012F06D0022F06D0032FD2
:10B9C0000AD106E0099108E0099306E0CDF824C009
:10B9D00003E00898099000E000BF00BF09980BB091
:10B9E000BDE8F08F00000000000000000102030429
:10B9F000060708090010024000127A0000093D0005
:10BA0000064A02EB9011096800F01F0301229A40D8
:10BA10001143024B03EB901211607047001002407B
:10BA2000064A02EB9011096800F01F0301229A40B8
:10BA30009143024B03EB90121160704700100240DB
:10BA4000064A02EB9011096800F01F0301229A4098
:10BA50001143024B03EB901211607047001002403B
:10BA60007CB505460C461148007800F0020018B974
:10BA70000FA0FDF733FE7CBDA5208DF800008DF8EA
:10BA800001508DF802409DF800009DF80110084417
:10BA90009DF802100844C0B28DF8030004226946E4
:10BAA0000120FDF78FFA00BFE5E700000600002047
:10BAB0006572726F723A20544F4350555F434F4D39
:10BAC000206E6F7420696E69740A000070B50446B8
:10BAD000642C01DD642402E0002C00DA00240D490E
