:020000040800F2
:10000000C020002019010008B5050008FD03000804
:10001000B105000843020008130E000800000000AC
:10002000000000000000000000000000C9070008F8
:100030009302000800000000E5050008AB0C000872
:1000400033010008330100083301000833010008C0
:1000500033010008330100083301000833010008B0
:1000600033010008330100083301000833010008A0
:100070003301000833010008330100083301000890
:100080003301000833010008330100083301000880
:100090003301000833010008330100083301000870
:1000A0003301000833010008330100083301000860
:1000B0003301000833010008330100083301000850
:1000C0003301000833010008330100083301000840
:1000D0003301000833010008330100083301000830
:1000E000330100083301000833010008000000005C
:1000F0000000000000000000000000000000000000
:1001000033010008DFF80CD000F07AF8004800470F
:1001100001270008C0200020064880470648004705
:10012000FEE7FEE7FEE7FEE7FEE7FEE7FEE7FEE7A7
:10013000FEE7FEE7B50C000805010008202A04DBF5
:10014000203A21FA02F00021704721FA02F3D04050
:10015000C2F120029140084319467047D2B201E033
:1001600000F8012B491EFBD270470022F6E710B5BC
:1001700013460A4604461946FFF7F0FF204610BD15
:1001800030B505460020034600E05B1C934205D2D3
:10019000EC5CC85C201A01D1002CF6D130BD2DE9F1
:1001A000F05F0546002092469B46884606468146FB
:1001B00040241BE02846414647462246FFF7BEFF43
:1001C00053465A46C01A914110D31146184622464A
:1001D00000F028F82D1A67EB01084F46224601204F
:1001E000002100F01FF817EB00094E41201EA4F17A
:1001F0000104DFDC484631462A464346BDE8F09F0D
:10020000064C074D06E0E06840F0010394E8070063
:1002100098471034AC42F6D3FFF778FF5837000800
:1002200078370008202A04DB203A00FA02F1002087
:1002300070479140C2F1200320FA03F31943904024
:10024000704700BFFEE730B502460023541802E0B5
:1002500012F8015B2B44A242FAD3D8B230BDF0B5FC
:1002600005460E460024AF1905E015F8011BA0B2A3
:1002700000F0A8FD0446BD42F7D3A0B2002100F073
:10028000A1FD04462046002100F09CFD04462046C6
:10029000F0BD70470349086000BF024909680029A2
:1002A000FBD17047440000200448006820B1034897
:1002B0000068401E014908607047000044000020AB
:1002C0002DE9F04700240025012602274FF00408FD
:1002D0004FF0010902F0A4FD0546244800682840BB
:1002E0002249096888423BD002F00EFD04461F48AF
:1002F000006828431D49086002F0B4FC81461B4891
:100300000068401C28B119480068C04302F034FD61
:10031000814604F00700072813D004F0010000B95B
:10032000002604F0020000B9002704F0040008B918
:100330004FF0000808F0FF02F9B2F0B2082302F013
:10034000EBFCB9F1000F07D109A000F021FC104827
:1003500000F01EFC01F020FA0EA000F019FC02E0F3
:1003600017A000F015FCBDE8F08700000C0000208D
:1003700057726974652050726F74656374696F6E2B
:100380002064697361626C65642E2E2E0D0A000074
:10039000C03500084572726F723A20466C6173680E
:1003A00020777269746520756E70726F74656374FE
:1003B000696F6E206661696C65642E2E2E0D0A00D1
:1003C000466C617368206D656D6F7279206E6F7415
:1003D0002077726974652070726F746563746564E8
:1003E0000D0A000001B500200099C1F309021AB1FD
:1003F000012202EB912000E0880A08BD00BFFEE761
:1004000010B5044640F2026002F0A2FD2748844283
:1004100012D12749086040F2117002F099FD0423BF
:1004200002221821234802F075F808230222042131
:10043000204802F06FF811E040F20E6002F088FDF3
:100440004FF40073022218211A4802F063F84FF4A7
:10045000806302220421174802F05CF8204602F073
:10046000F1FE4FF4E131204602F09AFE00212046D1
:1004700002F074FF0021204602F060FF00212046B8
:1004800002F04CFF0021204602F040FF00212046F0
:1004900002F034FF0421204602F048FF08212046E4
:1004A00002F054FF204602F015FF10BD004400404A
:1004B0004C00002000080140F0B5144A002500243B
:1004C000002320E0B1FBF2F6303606F0FF0C2E469A
:1004D0006D1C00F806C0B1FBF2F602FB16110A26ED
:1004E000B2FBF6F26E1E865D302E01D1012600E0D1
:1004F00000260CB9012700E000273E400EB1002580
:1005000000E0641C5B1C0A2BDCD3F0BD00CA9A3BE4
:1005100010B51021014801F0FBFF10BD000C014097
:1005200010B51021014801F0F1FF10BD000C014091
:1005300010B51021054802F043F8044614B9FFF73E
:10054000E7FF01E0FFF7ECFF10BD0000000C0140E9
:1005500010B540F2036002F0FBFC102302221946A2
:10056000034801F0D7FF1021014801F0CFFF10BD73
:10057000000C01400B480068A0F10060800A0A49A5
:1005800008600846017801208840401EC0430749A2
:10059000086002F077FD03E001F0B2FE01F00CFF0D
:1005A000FAE700002C000020080000200C000020CA
:1005B00000BFFEE77047000010B540F2046002F093
:1005C000C7FC0F2302221021054801F0A3FF0421DC
:1005D000034801F09BFF0B21014801F099FF10BD7A
:1005E00000100140704770B505460C4606E02846ED
:1005F00000F0E8F9012801D1002070BD201EA4F10F
:100600000104F4D1401EF8E72DE9FC4704460F46EB
:10061000914600203860494601A8FFF7E4FF30B159
:100620003DA001F095F84FF0FF30BDE8FC879DF844
:100630000400182813D006DC012809D0022809D0AC
:10064000042825D109E041281AD0612820D118E0DA
:10065000802520E04FF480651DE00020E5E7494655
:1006600001A8FFF7C0FF40B99DF80400182804D185
:100670004FF0FF3038600020D7E74FF0FF30D4E76D
:1006800000BF9DF804102AA001F062F80120CCE719
:100690004FF0FF30C9E700BF9DF80400207001262D
:1006A0000DE0A0194946FFF79EFF30B1314627A063
:1006B00001F04EF84FF0FF30B7E7701C86B2681DAE
:1006C0008642EEDB6178A07880F0FF00814206D0A0
:1006D000617826A001F03CF84FF0FF30A5E72946ED
:1006E000E01CFFF7BCFD8046281D215CE81C205C57
:1006F00041EA002AD0450CD0281D205C0090E81C5F
:10070000235CEA1C414623A001F022F84FF0FF30A1
:100710008BE73D60002088E7526563656976655F19
:10072000427974652074696D656F75740D0A0000F7
:10073000526563656976655F5061636B65742063BC
:10074000203D202523780D0A00000000666F7220EE
:10075000526563656976655F42797465206572727A
:100760006F722069203D2025640D0A006572726F4A
:10077000723A20646174615B5041434B45545F534E
:1007800045514E4F5F494E4445585D203D2025233D
:10079000780D0A00636865636B73756D206572720E
:1007A0006F7220636865636B73756D203D20252330
:1007B000782C646174615B25645D203D202523787D
:1007C0002C2523780D0A0000704710B504462046FA
:1007D00000F030F9002010BD00B589B02BA207CA87
:1007E00006AB07C32CA000F0D3F900F093FB394906
:1007F0000860084638A1026801A800F0B9FF01A806
:1008000000F0C6F933480068002822DD354800F0C2
:10081000BFF9354800F0BCF92E48016806A8FFF77B
:100820004BFE32A000F0B4F906A800F0B1F932A0F6
:1008300000F0AEF933A000F0ABF9354800F0A8F9AC
:1008400034A000F0A5F934A000F0A2F9002009B00E
:1008500000BD20480068401C18B935A000F098F988
:1008600012E01C480068801C18B941A000F090F903
:100870000AE018480068C01C18B944A000F088F9C4
:1008800002E048A000F084F90120E0E720202020C9
:10089000202020202020000057616974696E6720A5
:1008A000666F72207468652066696C6520746F20BD
:1008B00062652073656E74202E2E2E20287072655E
:1008C00073732027612720746F2061626F7274290F
:1008D0000A0D0000200000200D0A73697A653D258D
:1008E000640D0A000C3600087E0000200A0D20531B
:1008F000697A653A200000002042797465730D0A18
:10090000000000006D643573756D203A2000000012
:100910005C000020200D0A002D2D2D2D2D2D2D2DBC
:100920002D2D2D2D2D2D2D2D2D2D2D0D0A000000C1
:100930000A0A0D54686520696D6167652073697ADC
:100940006520697320686967686572207468616EE4
:100950002074686520616C6C6F77656420737061CA
:100960006365206D656D6F7279210A0D00000000CE
:100970000A0A0D566572696669636174696F6E2053
:100980006661696C6564210A0D0000000D0A0A4168
:10099000626F7274656420627920757365722E0AC5
:1009A0000D0000000A0D4661696C656420746F20BB
:1009B00072656365697665207468652066696C6533
:1009C000210A0D0010B5044605210748006802F011
:1009D00086FC012806D10448006802F029FC20703A
:1009E000012010BD0020FCE74C00002010B504469B
:1009F0000521064802F073FC012805D1034802F0E6
:100A000017FC2070012010BD0020FCE700380140D9
:100A100010B504460521064802F061FC012805D105
:100A2000034802F005FC2070012010BD0020FCE707
:100A30000044004010B5044600BF06210548006888
:100A400002F04DFC0028F8D021460248006802F070
:100A5000F4FB10BD4C00002010B5044600BF062179
:100A6000044802F03CFC0028F9D02146014802F07D
:100A7000E4FB10BD0038014010B5044600BF06215C
:100A8000044802F02CFC0028F9D02146014802F06D
:100A9000D4FB10BD0044004010B500240DA000F0B0
:100AA00077F800F0A8F943280FD14FF4504217A16E
:100AB0001C4800F015FD04461CB11BA000F068F8AE
:100AC00006E024A000F064F802E02BA000F060F83B
:100AD00010BD00000A0A0D53656C656374205265F1
:100AE00063656976652046696C65202E2E2E202868
:100AF000707265737320616E79206B657920746FF5
:100B00002061626F7274290A0D00000055706C6FCD
:100B100061646564466C617368496D6167652E62E6
:100B2000696E0000006000080A0D4572726F722045
:100B30004F636375726564207768696C65205472D1
:100B4000616E736D697474696E672046696C650ABD
:100B50000D0000000A0D46696C6520547261736DCA
:100B60006974746564205375636365737366756C2B
:100B70006C79200A0D0000000D0A0A41626F727440
:100B8000656420627920757365722E0A0D0000007D
:100B900010B5044603E02078FFF75EFF641C207860
:100BA0000028F8D110BD70B502460C460021002582
:100BB00000231078302843D15078782802D050781C
:100BC00058283DD1907808B9002070BD022130E04E
:100BD000505C10B9236001252DE0505C412802DBF8
:100BE000505C46280BDD505C612802DB505C6628B7
:100BF00005DD505C302819DB505C392816DC505C70
:100C0000302805DB505C392802DC505C30380AE0C3
:100C1000505C412805DB505C462802DC505C3738CC
:100C200001E0505C573800EB031301E0002502E0BF
:100C3000491C0B29CCD300BF0B2934D3002532E04B
:100C400000212AE0505C10B92360012527E0505CA8
:100C50006B2802D0505C4B2804D119B19B02236051
:100C600001251CE0505C6D2802D0505C4D2804D159
:100C700019B11B052360012511E0505C302809DB08
:100C8000505C392806DC505C303803EB830600EBFF
:100C9000460301E0002502E0491C0B29D2D300BF26
:100CA0000B2900D3002528468FE710B500F068F81F
:100CB00010BD000010B51448006840F00100124952
:100CC000086008464068114908400F4948600846D6
:100CD00000680F4908400C4908600846006820F485
:100CE00080200860084640680A4908400649486074
:100CF0000846006806490840034908604FF41F0091
:100D0000886002F0BBF910BD001002400C00FFE843
:100D1000FFFFF6FEFFFF00F730B5164800684FF4FE
:100D20007A72B0FBF2F1481EB0F1807F01D301204E
:100D30001BE0481E4FF0E022506150170F220028A0
:100D400004DB13071C0E0C4B1C5406E013071D0E8E
:100D50000A4B00F00F04241F1D5500BF00204FF068
:100D6000E022906107201061002008B100BFFEE77B
:100D700030BD00005400002000E400E018ED00E069
:100D800010B50F480088401C0D490880FFF78CFA09
:100D90000B480088012802D1FFF7CAFB0EE0084883
:100DA0000088C92802D1FFF7C3FB07E00448008888
:100DB000B0F5C87F02DD00200149088010BD0000A9
:100DC0004800002010B503460C46194644F48072D2
:100DD00000BF4900520002F4807000B1491C01F4C8
:100DE000803010B141F22100414002F480300028EF
:100DF000EFD088B210BD08B50020009004E068462E
:100E0000FFF7E0FD00B100E0F9E700BF9DF800004A
:100E100008BD00BFFEE72DE9FE4305460F4690469C
:100E20000120287000206870FF20A870002404E0D2
:100E3000395DE01C2954601C84B2385D08B1402C37
:100E4000F6DB0021E01C29546846D8F80010FFF7B3
:100E500033FB0026201D84B208E03046711C8EB2A0
:100E60001DF800202046611C8CB22A541DF8060093
:100E70000028F2D1264603E00020A855701C86B257
:100E8000832EF9DBBDE8FE83F0B5074614461D4608
:100E9000B5F5806F02D34FF4806C01E04FF0800C09
:100EA00063469D4201D2AC4600E09C461FFA8CF29C
:100EB000B3F5806F04D14FF0020C81F800C003E05D
:100EC0004FF0010C81F800C04C706FEA040C81F8FF
:100ED00002C03E46032007E016F801CB01F800C02F
:100EE00000F1010C1FFA8CF002F1030C6045F3DBFA
:100EF0009A420EDC1FFA8CF007E04FF01A0C01F852
:100F000000C000F1010C1FFA8CF003F1030C6045E6
:100F1000F3DBF0BD2DE9F04FADF2444D002006901B
:100F2000F948049000200390019080468146F748DC
:100F3000F74908600846006802900DF13F0700205D
:100F400009908246079000BF00260020089000BF4D
:100F50004FF480120AA90FA8FFF756FB10B1012821
:100F60007ED190E14FF0000A0A98B0F1FF3F01D026
:100F700070B907E00620FFF728FC00200DF2444D71
:100F8000BDE8F08F0620FFF720FC0120089078E1F3
:100F90009DF83D00F1B288420CD0DE48007828B1BF
:100FA0009DF83D103246DCA000F0D2FB1520FFF783
:100FB0000CFC65E1002E6AD1B9F1000F68D19DF8F3
:100FC0003F00002864D000240DF13F0505E015F82E
:100FD000012B2046641CE0490A54287808B1402CB3
:100FE000F5DB00222046641CDB490A5400246D1CFA
:100FF00005E015F8012B2046641C0BA90A5428783B
:10100000202801D0102CF4DB00222046641C0BA900
:101010000A54C048007810B1D0A000F099FB06A98E
:101020000BA8FFF7C0FDBB48007878B300E06D1C4B
:1010300028780028FBD028782028F8D000240AE05F
:10104000285DCB4908550498005D295D884201D090
:1010500001200390641C202CF2DB0020C44900E036
:101060001DE10855039868B91820FFF7AEFB18205A
:10107000FFF7ABFB22462946BEA000F069FB6FF0EC
:1010800003007BE70020BA49085506E001E04CE088
:1010900041E00698A0F5C04006900698B0F5504F84
:1010A0000ED31820FFF791FB1820FFF78EFB4CF6AC
:1010B000FF72B9A0069900F04BFB4FF0FF305DE7DF
:1010C0000698FFF78FF9BE4908600020BD49086007
:1010D00010E08F490968BC4A1288BA4B1B6802FBB2
:1010E000031000F0C9FFB9490870B6480068401CF9
:1010F000B4490860B3480068B1490968884203D21E
:10110000B24800780028E4D00620FFF75EFB4320B9
:10111000FFF75BFBB1E0B9F1000FFBD00620FFF752
:1011200054FB012008900990ABE0B9F1000F6BD19E
:1011300078480078B0BBB8F5C04F34DAB8F5BC4F8A
:1011400027D1002414E0385D8949085544B1084688
:10115000005D662804D1601E085C662800D109E0A5
:101160000498005D395D884201D001200390641C21
:10117000202CE8DB00BF00207D490855039840B9CA
:101180001820FFF722FB1820FFF71FFB6FF003006A
:10119000F4E60A9880440620FFF717FB761C01202E
:1011A0000790D5E6FFE75B48007808B1012E05D02F
:1011B0005848007840BBB8F5C04F25D138686FF368
:1011C0001000B0F1005F0BD01820FFF7FEFA1820D6
:1011D000FFF7FBFA7EA000F0BBFA6FF00100CDE64E
:1011E00078686FF30B00814988420BD01820FFF715
:1011F000ECFA1820FFF7E9FA7DA000F0A9FA6FF0E9
:101200000100BBE64FF00109B9F1000F32D07F4871
:1012100007604FF0000B23E07C48006801683C4801
:10122000006800F0C1FF3A48006800687749096823
:101230000968884208D01820FFF7C7FA1820FFF77E
:10124000C4FA6FF0010099E631480068001D30498A
:1012500008606E480068001D6C4908600BF1040BC3
:101260000A98834506DA06990298084428490968CD
:101270008842D1D80620FFF7A8FA761C01200790F3
:1012800000BF00BFF4E062A000F062FA1820FFF790
:101290009CFA1820FFF799FA6FF002006EE661A041
:1012A00000F056FA0798002810DD0AF1010ABAF199
:1012B000050F17DD1820FFF788FA1820FFF785FAC9
:1012C000514660A000F044FA002057E60198401C07
:1012D000C0B201900198502804DB5EA000F038FAFB
:1012E00000204BE605A8FFF781FB60B19DF81400D4
:1012F000612808D11820FFF768FA1820FFF765FA6F
:101300006FF002003AE6AFE0085E00080030010826
:101310002C000020280000207061636B65745F64FE
:101320006174615B5041434B45545F5345514E4F8F
:101330005F494E4445585D203D202523782070614B
:10134000636B6574735F7265636569766564203D80
:101350002025640D0A0000007E00002066696C658F
:101360005F73697A65203D2025730D0A0000000037
:101370005C0000206D6435206973207468652073FB
:10138000616D652C206D6435203D2025732069201A
:101390003D2025640D0A000073697A6528256429BB
:1013A000203E2028464C4153485F494D4147455F08
:1013B00053495A45202D203129282564290D0A003A
:1013C0003800002034000020300000203C000020C5
:1013D000646F776E2066696C65206572726F72202B
:1013E000312C61626F72740D0A0000000060000809
:1013F000646F776E2066696C65206572726F72200B
:10140000322C61626F72740D0A00000040000020EF
:10141000313A2061626F727420627920757365724F
:101420000D0A00002D313A2074696D656F757420C6
:101430006F72207061636B6574206572726F720DDC
:101440000A0000006572726F7273203D2025640DE2
:101450000A000000646F776E6C6F61642074696DC0
:10146000656F75740D0A00004320FFF7AEF900BFE9
:1014700000BF089818B108A000F06AF900E067E51D
:1014800000BF099800283FF45FAD08A000F060F9A4
:1014900000BF00BF069871E566696C655F646F6E9A
:1014A0006520627265616B0D0A00000073657373DD
:1014B000696F6E5F646F6E6520627265616B0D0AA5
:1014C0000000000070B505460E46002404E0285DCB
:1014D000FFF77BF9601C84B2B442F8DB70BD0000FA
:1014E0002DE9F74FADF58B6D00200190814600246A
:1014F0008046002606E0DDF85C04805D04A988557E
:10150000701CC6B23F2EF6DB012001900DF58C62F7
:1015100004A914A8FFF77FFC00BF832114A8FFF7DC
:10152000D1FF019860B180210DF15300FEF797FEC5
:1015300005462812FFF749F9E8B2FFF746F908E037
:1015400080210DF15300FEF77EFE03900398FFF714
:101550003CF942F2107102A8FFF745F830B99DF846
:101560000800062803D14FF0010800E0641CB8F120
:10157000000F01D10A2CD0D30A2C04D3E0B20DF213
:10158000644DBDE8F08FDDF858A4DDF860944FF0AD
:10159000010B59E00BF0FF024B4614A95046FFF730
:1015A00073FC4FF0000800208DF80800002400BFF5
:1015B000B9F5806F02D34FF4806700E08027F81CF4
:1015C00081B214A8FFF77EFF019860B139460DF192
:1015D0005300FEF744FE05462812FFF7F6F8E8B27E
:1015E000FFF7F3F808E039460DF15300FEF72BFE44
:1015F00003900398FFF7E9F8544902A8FEF7F3FFB8
:10160000C0B99DF80800062814D14FF00108B9456B
:101610000CD9BA44A9EB0709BBF1340F01D1FF2063
:10162000ADE70BF101001FFA80FB04E0BA444FF074
:10163000000900E0641CB8F1000F01D10A2CB7D3F7
:101640000A2C01D3E0B29AE7B9F1000FA2D14FF012
:10165000000800208DF80800002400BF0420FFF7D8
:10166000B4F842F2107102A8FEF7BDFF30B99DF840
:101670000800062802D14FF0010800E0641CB8F110
:10168000000F01D10A2CE9D30A2C01D3E0B276E78E
:101690004FF0000800208DF80800002401208DF88C
:1016A000500000208DF85100FF208DF852000326D5
:1016B00004E0002014A98855701CC6B2832EF8DB04
:1016C00000BF832114A8FFF7FDFE80210DF1530018
:1016D000FEF7C5FD05462812FFF777F8E8B2FFF7D9
:1016E00074F842F2107102A8FEF77DFF30B99DF840
:1016F0000800062803D14FF0010800E0641CB8F18F
:10170000000F01D10A2CDCD30A2C01D3E0B236E75A
:1017100000BF0420FFF759F842F2107102A8FEF74B
:1017200062FF30B99DF80800062802D14FF0010889
:1017300000E0641CB8F1000F01D10A2CE9D30A2C97
:1017400001D3E0B21BE7002019E70000A0860100EA
:101750000FB4054B10B503A9044A029800F04CF8E9
:1017600010BC5DF814FB000069220008580000203E
:101770000FB4084B10B504A902AA039800F03CF876
:10178000044602A9002000F068FA204610BC5DF86B
:1017900014FB00005B1C000800BF00BF00BFBFF3CC
:1017A0004F8F00BF00BF00BF0948006800F4E06031
:1017B00008490843001D0649086000BF00BF00BF7C
:1017C000BFF34F8F00BF00BF00BF00BF00BFFDE7EA
:1017D0000CED00E00000FA0502E008C8121F08C185
:1017E000002AFAD170477047002001E001C1121FA2
:1017F000002AFBD1704700002DE9FF4F8DB00F4646
:101800000546002606E025280BD0DDE90F1290479B
:101810006D1C761C28780028F5D111B03046BDE843
:10182000F08F0024A246A1460122EC4900E00443C7
:1018300015F8013F203B02FA03F00842F7D128785F
:101840002A2810D06FF02F022878A0F13001092942
:1018500014D80AEB8A0102EB410144F0020400EBC8
:10186000010A6D1CF0E701CF5FEA000A03D544F4DA
:101870000054CAF1000A44F002046D1C28782E2896
:1018800017D115F8010F44F004042A280ED06FF088
:101890002F022878A0F1300109290AD809EB890123
:1018A00002EB410100EB01096D1CF2E757F8049BC4
:1018B0006D1C28786C280FD006DC4C2817D06828BF
:1018C0000DD06A2814D104E0742810D07A280FD1E2
:1018D0000DE044F400140AE044F4801401E044F400
:1018E00040146978814202D104F580146D1C6D1C8E
:1018F0002A786E2A1FD00CDC632A31D004DC002A3F
:101900008BD0582A11D1A3E0642A68D0692A0CD15F
:1019100065E0732A2ED004DC6F2A73D0702A04D1BC
:101920009BE0752A6FD0782A6ED01046DDE90F1241
:101930009047761C50E1C4F30250022806D00328D9
:1019400009D0042801CF09D0066045E101CFF11785
:10195000C0E9006140E101CF06803DE106703BE156
:1019600017F8040B8DF8000000208DF80100EB46FD
:10197000012003E057F804BB4FF0FF3061074FF040
:10198000000102D40DE008F10101884649450FDA53
:101990008045F8DB1BF808100029F4D108E008F1B5
:1019A000010188468142FADB1BF808100029F6D1B4
:1019B000DDE90F23AAEB08008146214600F036F945
:1019C000304400EB080604E0DDE90F121BF8010BC0
:1019D0009047B8F10108F7D221464846F7E00A21BE
:1019E000C4F302534FF0000B0891022B04D001CF37
:1019F000C117032B09D00AE0FF1D27F00707F7E8FE
:101A0000020108E032E01FE020E000B2C117042B21
:101A100001D140B2C117031E71F1000307DA4FF084
:101A2000000CD0EB0C006CEB01012D2302E0230530
:101A300004D52B238DF82430012303E0E30701D0E4
:101A40002023F7E7984658E00A2110E010210EE025
:101A500010204FF0000B08900CE010214FF0000B0D
:101A600044F004044FF00809089103E008214FF006
:101A7000000B0891C4F30253022B04D001CF0021C4
:101A8000032B06D006E0FF1D27F00707F7E8020149
:101A900003E080B2042B00D1C0B24FF0000823074E
:101AA0002BD5702A07D0DDF820C08CF0100C5CEA32
:101AB0000B0C05D00EE040238DF82430012308E004
:101AC00050EA010306D030238DF824308DF825200C
:101AD00002239846DDF820C08CF0080C5CEA0B0C61
:101AE0000BD150EA010301D1630706D530238DF8ED
:101AF00024304FF00108A9F10109582A04D038A276
:101B00000B9208AA0A920BE03AA2F9E75B46089A00
:101B1000FEF745FB0B9B9B5C0A9A521E0A921370C0
:101B200050EA0102F2D10A98ADEB000000F1200B5F
:101B3000600702D524F4803401E04FF00109D94553
:101B400002DDA9EB0B0000E0002000EB0B0141449B
:101B50000890AAEB010AE00306D4DDE90F23214631
:101B6000504600F063F806444FF0000908E009A968
:101B700011F80900DDE90F12904709F10109761CFF
:101B8000C145F4DBE0030CD5DDE90F2321465046C7
:101B900000F04CF8064404E0DDE90F1230209047D5
:101BA000761C0899481E08900029F5DC08E00A9880
:101BB0000A990078491C0A91DDE90F129047761CBA
:101BC000BBF10001ABF1010BF1DC21465046DDE930
:101BD0000F2300F019F806446D1C1BE609280100CC
:101BE0003031323334353637383961626364656693
:101BF0000000000030313233343536373839414255
:101C000043444546000000002DE9F041044600250C
:101C10001E461746880404D405E039462020B04704
:101C20006D1C641EF9D52846BDE8F0812DE9F04110
:101C3000044600251E469046C80301D5302700E023
:101C40002027880404D505E041463846B0476D1C7E
:101C5000641EF9D52846BDE8F0810A68531C0B6064
:101C6000107070472DE9F74FACB091462C9818B919
:101C700001202FB0BDE8F08F4D4605F1080001218D
:101C800001EB901A2E4B0FCB17AC0FC4002016900F
:101C9000C5EB8A101590002003E0002101AA115421
:101CA000401C5028F9DB80208DF804000820A5FB9B
:101CB0000078002417E0C4F10700C100FF2088402D
:101CC00000EA070B08EAE070C4F10701CA002B9094
:101CD00058462B99FEF732FAC1B21598001B401EE8
:101CE00001AA1154641C082CE5D3002417E000203D
:101CF00004E000211BAA42F82010401C1028F8DB49
:101D000001A82B4616AA00901BA82D9900F0E6FE0C
:101D10000C4B0D4A1BA917A800F00DFF641C54457D
:101D2000E5D3002608E017A98A5D2C9901EB46004F
:101D300006A1FFF71DFD761C102EF4DB002098E7AE
:101D40006C3500086C3400086C330008253032789C
:101D50000000000010B511A0FEF71AFF1A48FEF7A8
:101D600017FF1A48FEF714FF1948FEF711FF17482E
:101D7000FEF70EFF17A0FEF70BFF1B480068FEF7EB
:101D800007FF1AA0FEF704FF04A0FEF701FF1DA045
:101D9000FEF7FEFEFEF7EEFB10BD00000D0A3D3D16
:101DA0003D3D3D3D3D3D3D3D3D3D3D3D3D3D3D3D63
:101DB0003D3D3D3D3D3D3D3D3D3D3D3D3D3D3D3D53
:101DC0003D3D3D3D3D3D0000C836000880360008E1
:101DD000103700080D0A3D202020202042792044A1
:101DE000617A686920000000240000202020202063
:101DF00020202020202020202020202020202020E3
:101E0000203D00000D0A0D0A000000002DE9F04100
:101E1000274D284E002700F0A5F928686FF3100021
:101E2000B0F1005F07D024A0FFF792FC00F03CFE69
:101E30000220BDE8F08168686FF309001D498842FF
:101E400006D021A0FFF784FC00F02EFE0220F0E770
:101E500021480068B0F5806F02DD1F48006802E08D
:101E60001E48006840680446B4F5806F02D3B4F59C
:101E7000504F01D94FF450442246214618A0FFF795
:101E800067FC304600F0F8F80BE0E959304600F006
:101E90008BF9361D3F1DC6F3090010B9304600F01E
:101EA000EBF8A742F1D300F0FFFD0020C1E70000EE
:101EB00000300108006000086E6F74207570646166
:101EC00074650D0A000000006E6F74207570646107
:101ED000746520330D0A000020000020500000200F
:101EE000666C6173685F646F776E6C6F61645F636B
:101EF0006F7079746F5F6170702073697A65203DCF
:101F000020252378202F2F2025640D0A00000000B3
:101F100000B50346012200BF00F00CF802465B1E2C
:101F2000012A01D1002BF7D1012A00D10422104649
:101F300000BD000000200A49C96801F0010109B193
:101F400001200CE00649C96801F0100109B1032025
:101F500005E00349C96801F0040101B1022070479E
:101F60000020024000B50346012200BF00F00CF83B
:101F700002465B1E012A01D1002BF7D1012A00D1B4
:101F80000422104600BD000000200A49C96C01F07F
:101F9000010109B101200CE00649C96C01F01001F2
:101FA00009B1032005E00349C96C01F0040101B146
:101FB000022070470020024070B504460D460026FE
:101FC0002A480088B0F5007F35D22948844219D2CA
:101FD0004FF47020FFF79CFF0646002E43D12548A2
:101FE000006940F001002349086125804FF470200A
:101FF000FFF78EFF06461F48006920F001001D49CB
:10200000086130E04FF47020FFF7ACFF064656BB86
:102010001848006D40F001001649086525804FF40E
:102020007020FFF79FFF06461248006D20F0010068
:102030001049086517E04FF47020FFF769FF064666
:102040008EB90C48006940F001000A4908612580FA
:102050004FF47020FFF75CFF06460648006920F049
:10206000010004490861304670BD0000E0F7FF1F21
:10207000FFFF07080020024030B5054636480088BB
:10208000B0F5007F48D9354885421ED24FF4702004
:10209000FFF73EFF0446002C5BD13148006940F059
:1020A00002002F49086108464561006940F0400080
:1020B00008614FF47020FFF72BFF044628480069A1
:1020C00020F002002649086143E04FF47020FFF73A
:1020D00049FF0446002C3CD12148006D40F002002D
:1020E0001F49086508464565C06900F0020008B14F
:1020F000084645611A48006D40F0400018490865DF
:102100004FF47020FFF72EFF04461548006D20F0B5
:102110000200134908651CE04FF47020FFF7F8FE39
:102120000446B4B90E48006940F002000C49086149
:1021300008464561006940F0400008614FF4702096
:10214000FFF7E6FE04460648006920F00200044955
:102150000861204630BD0000E0F7FF1FFFFF0708C1
:10216000002002400C48006900F0800020B10B48BC
:10217000094948600A4848600A480088B0F5007F6D
:1021800009D90548006D00F0800020B103480249DC
:1021900048640348486470470020024023016745B3
:1021A000AB89EFCDE0F7FF1F70B504460D46002662
:1021B0002A480088B0F5007F35D92948844219D2D1
:1021C0004FF47020FFF7A4FE0646002E43D12548A9
:1021D000006940F001002349086125604FF4702038
:1021E000FFF796FE06461F48006920F001001D49D2
:1021F000086130E04FF47020FFF7B4FE064656BB8E
:102200001848006D40F001001649086525604FF43C
:102210007020FFF7A7FE06461248006D20F001006F
:102220001049086517E04FF47020FFF771FE06466D
:102230008EB90C48006940F001000A490861256028
:102240004FF47020FFF764FE06460648006920F050
:10225000010004490861304670BD0000E0F7FF1F2F
:10226000FFFF07080020024070B504460D46E0B2AB
:10227000FEF7F2FB204670BD30B502460B46164C09
:10228000002145F25550154D286000BF1348C06825
:1022900000F00101601E041E01D00029F6D109B131
:1022A000002030BD0D4843600B4C00BF0B48C06898
:1022B00000F00201601E041E01D00029F6D109B110
:1022C0000020EEE7C2F30B00044DA8604AF6AA20F6
:1022D00028600120E5E70000FFFF0F00003000400C
:1022E0004CF6CC40014908607047000000300040C7
:1022F00045F2555001490860704700000030004029
:1023000008B56846FEF772FB002842D09DF8000031
:10231000312817D1002000F04BFE00201D49087025
:10232000FEF75AFA002834D11BA0FFF711FA00F08B
:1023300021FB00282DD1FFF769FD17A0FFF708FA50
:10234000FFF72AFA9DF80000392805D1002000F097
:102350002FFEFEF7A1FB1CE09DF80000382805D1F8
:1023600001200C49087000F091F812E09DF800007F
:10237000322801D1FFF710FA9DF80000332806D16A
:102380000C480068012802D1FDF79AFF01E000F037
:1023900079FE08BD280000206465627567207561BC
:1023A00072742075706461746520646F6E65210DB0
:1023B0000A00000010000020F8B52D4D00266846E8
:1023C000FEF726FB002852D09DF80000A52802D178
:1023D0000020284908709DF800002749254A1278F6
:1023E00088542448007804283EDA22480078401CAB
:1023F0002049087008460078042838D11FA0FFF74C
:10240000A7F91D4840784A282AD11B488078D0B9BE
:102410001948C078EF2816D1FF265A20FEF72CFB6A
:10242000A520FEF729FB002407E0285DFEF724FB2A
:10243000285D3044C6B2601CC4B2202CF5DB3046A7
:10244000FEF71AFB0CE00C488078012808D10A48F6
:10245000C078F02804D101200B49087000F016F86C
:1024600000200449087002E0002002490870F8BD0D
:10247000085E00081C00002014000020696E6465DE
:1024800078203D20340D0A002800002016A0FFF718
:102490005FF91A48006840884FF6FF71884205D1FD
:1024A000FFF760FEFF211648FFF786FD00BF00BF63
:1024B00000BF00BF00BFBFF34F8F00BF00BF00BF12
:1024C0001048006800F4E0600F490843001D0D4902
:1024D000086000BF00BF00BFBFF34F8F00BF00BF49
:1024E00000BF00BF00BFFDE7676F746F5F6F74616F
:1024F0005F757064617465200D0A00005000002053
:10250000025C00080CED00E00000FA054161704734
:1025100001617047F0B5044616460025002201F01F
:102520000F0501F0100707B1354300201EE0012719
:1025300087401F40C7B122684FEA800C0F2707FA77
:102540000CF7BA43870005FA07F73A43282904D164
:10255000012787401F40676105E0482903D1012713
:1025600087401F4027612260471CB8B20828DED38D
:10257000082022E0012787401F40E7B16268A0F1F0
:1025800008074FEA870C0F2707FA0CF7BA43A0F1A8
:102590000807BF0005FA07F73A43282904D10127A5
:1025A00087401F40676105E0482903D10127874024
:1025B0001F4027616260471CB8B21028DAD3F0BD13
:1025C0000246D068084008B1012070470020FCE7AF
:1025D000F0B50A46002300240021002500F0004643
:1025E000B6F1004F02D11D4EF16901E01B4E71683A
:1025F000C0F3034583B200F44016B6F5401F08D17E
:1026000021F07061154E766826F07066134F7E607B
:1026100012E000F48016B6F5801F06D1032606FAF4
:1026200005F4A14341F0706106E0460D360103FA5E
:1026300006F6B14341F0706122B1460D360103FA4E
:1026400006F6314300F00046B6F1004F02D1034ECA
:10265000F16101E0014E7160F0BD00000000014039
:1026600010B50748006840884FF6FF71884204D0D3
:1026700004A0FEF78DFA012010BD0020FCE7000049
:10268000500000203D69735F6D63755F6E65656422
:102690005F7570646174652031203D3D3D3D0D0ADC
:1026A0000000000010B50748006800884FF6FF7171
:1026B000884204D104A0FEF76BFA012010BD00206F
:1026C000FCE70000500000203D69735F6D63755F9B
:1026D0006E6565645F7570646174652031203D3D91
:1026E0003D3D0D0A0000000010B5FFF701FE04217A
:1026F00040F6FF70FFF7C0FDFFF7F2FD10BD0000D0
:1027000008B5002500244FF4A06000F0A1FA4FF4B2
:10271000C06000F01DFC01214A48FFF759FFFEF799
:10272000FBFAFDF749FF4848FDF76AFE4748FDF709
:1027300067FEFDF70DFFFFF715FD45A0FEF728FA30
:102740004F480068FEF724FA4EA0FEF721FAFFF783
:1027500087FF002816D0012000F02AFC4AA0FEF7CF
:1027600017FA012051490870FEF736F800282CD1DD
:1027700000F000F910B9FFF749FB26E04CA0FEF786
:10278000E7FF22E0FFF78EFF28B152A0FEF700FA24
:10279000FFF73CFB19E058A0FEF7FAF90CE0684699
:1027A000FEF724F928B19DF80000032801D1012487
:1027B00007E00120FDF76EFD2846691C8DB2C82890
:1027C000EDDB00BF0CB1FFF7C5FA534800686FF3AB
:1027D0001000B0F1005F02D0FDF7CCFE08E04E48DB
:1027E00040686FF30B004C49884201D0FDF7C2FEF0
:1027F0004AA0FEF7CDF94848006851490840B0F1B9
:10280000005F11D1FFF770FF434840684D490860F1
:10281000084600684C4908603F49086880F308880A
:1028200000BF49480068804748A0FEF7B1F908E0BA
:1028300046A0FEF7ADF9FFF78DFA4FF47A70FDF779
:1028400029FDF5E700023000003801400044004057
:102850000D0A49415028484A4D4355292073746157
:1028600072742862792064617A6869406A63292CED
:1028700020696E6974206F6B21210D0A0000000031
:10288000240000200D0A00003D69735F6D63755FD1
:102890006E6565645F646F776E6C6F6164203D3D4B
:1028A000203120203D3D3D3D0D0A00002800002044
:1028B000736F6D657468696E6720696E20646F77E9
:1028C0006E6C6F61646572206572726F7221210D8A
:1028D0000A0000003D69735F6D63755F6E65656436
:1028E0005F757064617465203D3D203120203D3D61
:1028F0003D3D0D0A000000003D6764333220626FE9
:102900006F746C6F616465722073746172743D3DA5
:102910003D3D3D3D0D0A0000006000083D2067641C
:10292000333220626F6F746C6F6164657220617501
:10293000746F20626F6F743D3D3D3D3D3D0D0A005B
:102940000000FE2F04000020000000203D206764EE
:10295000333220626F6F746C6F61646572206572D0
:10296000726F72207768696C6520313D3D3D3D3D59
:102970003D0D0A00F0B589B024216846FDF7F5FB4E
:102980002C4F2D4E2D480068B0F5806F02DD2B488E
:10299000006802E02A48006840680546B5F5806F87
:1029A00002D3B5F5504F01D94FF450452A46394668
:1029B0006846FFF757F990B9694622A0FEF7C8FEAE
:1029C00027480078A0B1202226496846FDF7D8FBA9
:1029D00070B125A0FEF7BCFE012009B0F0BD0024B7
:1029E00004E0FF200DF80400601CC4B2202CF8DBCA
:1029F000FFF7B8FB24A0FEF7CBF82A48FFF73CFB13
:102A0000002407E05DF804103046FFF7CDFB361DCB
:102A1000201DC4B2202CF5DB08480068B0F5806F9B
:102A200005DD064801681F48001DFFF7BDFB0020BB
:102A3000D3E7000000300108085E000820000020F5
:102A40005000002063616C5F6D6435206D643572E9
:102A50006573756C74203D2025730D0A000000001D
:102A6000280000205C0000207374726E636D70207B
:102A70006D6435206572726F7221206E6F742075DF
:102A80007064617465210A003D6D63755F646F77E2
:102A90006E6C6F61645F646F6E653D3D3D3D0D0A18
:102AA00000000000005C000810B505A0FEF770F8FB
:102AB000FFF758FBFF210848FFF77EFA10BD000022
:102AC0003D6D63755F7570646174655F646F6E659D
:102AD0003D3D3D3D0D0A0000005C0008F0B5044698
:102AE0000D46059E002023E000210BE054F820C095
:102AF0001768EF5D8F40674444F8207017687F1CAB
:102B00001760083117689F4201D21829EEDD0CE0EA
:102B100054F820C01768FF1AF75D8F40674444F8E7
:102B2000207017687F1C176008311829F0DD401CE1
:102B30000F28D9D9F0BD2DE9F84F04460D461646A9
:102B40001F46D4F800C06168A268E3684FF000082F
:102B5000C146CDF80090002061E00F2807D801EAB7
:102B6000020A23EA010B4AEA0B08009031E0102820
:102B700010D31F280ED803EA010A22EA030B4AEAFF
:102B80000B0800EB800A0AF1010A0AF00F0ACDF8DF
:102B900000A01EE020280ED32F280CD881EA020ABC
:102BA0008AEA030800EB400A0AF1050A0AF00F0A54
:102BB000CDF800A00DE030280BD33F2809D861EAFA
:102BC000030A8AEA0208C0EBC00A0AF00F0ACDF82D
:102BD00000A0994613460A460CEB080A56F820B0A6
:102BE000D344DDF800A055F82AA0DA4417F820B045
:102BF0000AFA0BFA0CEB080B56F820E0DE44DDF87D
:102C000000B055F82BB0F34457F820E0CEF1200E79
:102C10002BFA0EFB4AEA0B0A5144CC46401C4028D2
:102C20009BD3D4F80090E144C4F80090D4F8049009
:102C30008944C4F80490D4F808909144C4F80890EA
:102C4000D4F80C909944C4F80C90BDE8F88F0000BB
:102C500002490143024A1160704700000000FA0572
:102C60000CED00E030B5A5254FF47020FFF750F9CA
:102C7000044600F03DF800B1BB2554BB1A4800697A
:102C800040F02000184908610846006940F0400003
:102C900008614FF47020FFF73BF90446D4B912489D
:102CA000006920F02000104908610846006940F0E2
:102CB000100008610D4805804FF47020FFF728F9D7
:102CC0000446042C0ED00848006920F01000064984
:102CD000086107E0042C05D00348006920F01000CB
:102CE00001490861204630BD0020024000F8FF1F66
:102CF00000200449C96901F0020109B1012000E086
:102D000000207047002002400248C069C0F38700DD
:102D100070470000002002402DE9F04305460E46B2
:102D20001746984600244FF47020FFF7F1F8044648
:102D3000DCB90F48006940F010000D49086148EA0D
:102D400005003043384340F0F0090A48A0F80090ED
:102D50004FF47020FFF7DCF80446042C05D004483B
:102D6000006920F01000024908612046BDE8F083A8
:102D70000020024002F8FF1F2DE9F04304464FF403
:102D80007020FFF7C5F80546E443E6B2C4F3072711
:102D9000C4F307484FEA1469DDBB1F48006940F0DF
:102DA00010001D490861FF2E06D01C4806804FF414
:102DB0007020FFF7ADF805464DB9FF2F07D0174833
:102DC000801C07804FF47020FFF7A2F805465DB91C
:102DD000B8F1FF0F08D01148001DA0F800804FF493
:102DE0007020FFF795F805465DB9B9F1FF0F08D0DF
:102DF0000A48801DA0F800904FF47020FFF788F873
:102E00000546042D05D00448006920F01000024951
:102E100008612846BDE8F0830020024008F8FF1F43
:102E20000148006A70470000002002402DE9F04F81
:102E30008BB00746002009903EA090E8004CC06887
:102E4000CDE905BECDF810A007900FF2EC0ADAE943
:102E5000000ACDE9020A0FF2E00ADAE9000ACDE938
:102E6000000A38484068C0F381000A900A9820B1EF
:102E7000012804D0022829D103E0334928E032494F
:102E800026E03048406800F48038B8F5803F09D12A
:102E90002D4C2C48406800F40039B9F5003F02D1B0
:102EA000641000E0294C27484068C0F3834225485D
:102EB000406800F0006008B142F010020F2A01D211
:102EC000921C00E0521C04FB02F101E01E4900BF0D
:102ED00000BF1C484068C0F3031504A8465D21FAF2
:102EE00006F318484068C0F3022502A8465D23FA9D
:102EF00006FC14484068C0F3C2251DF8056023FA9B
:102F000006F0089037B1012F06D0022F06D0032F0C
:102F10000AD106E0099108E0099306E0CDF824C043
:102F200003E00898099000E000BF00BF09980BB0CB
:102F3000BDE8F08F00000000000000000102030463
:102F4000060708090010024000127A0000093D003F
:102F5000064A02EB9011096800F01F0301229A4013
:102F60001143024B03EB90121160704700100240B6
:102F7000064A02EB9011096800F01F0301229A40F3
:102F80009143024B03EB9012116070470010024016
:102F9000064A02EB9011096800F01F0301229A40D3
:102FA0001143024B03EB9012116070470010024076
:102FB00018B90449044A116002E00449024A116048
:102FC00070470000003801404C00002000440040E1
:102FD00000200021264A126842F00102244B1A60A8
:102FE00000BF401C224A126802F0020111B9B0F57C
:102FF000A06FF6D11E4A126802F002020AB900BFA1
:10300000FEE71B4A52681A4B5A601A4652685A60C9
:103010001A46526842F480625A601A465268154B4A
:103020001A40134B5A601A465268134B1A43104BFE
:103030005A601A46126842F080721A6000BF0C4A49
:10304000126802F00072002AF9D0094A526822F090
:103050000302074B5A601A46526842F002025A6055
:1030600000BF034A526802F00802002AF9D07047F4
:1030700000100240FFFFC3F70000280810B5FFF75B
:10308000A7FF10BD10B5FFF7CBFE10490968084037
:103090000E490968884203D001200D49086002E00A
:1030A00000200B4908600BA0FDF772FD1948FDF7E1
:1030B0006FFD19A0FDF76CFD0548006810B11FA059
:1030C000FDF766FD26A0FDF763FD10BD0C00002096
:1030D000100000200D0A3D3D3D3D3D3D3D3D3D3D47
:1030E0003D3D3D3D3D3D3D3D204D61696E204D6581
:1030F0006E75203D3D3D3D3D3D3D3D3D3D3D3D3DB4
:103100003D3D3D3D3D3D3D3D3D3D3D3D3D3D3D0D1F
:103110000A0000007C350008322E20205265626FC4
:103120006F74207468652073797374656D202C202A
:1031300052756E20415050200D0A0000332E202081
:1031400044697361626C6520746865207772697484
:10315000652070726F74656374696F6E0D0A00008C
:103160003D3D3D3D3D3D3D3D3D3D3D3D3D3D3D3D8F
:103170003D3D3D3D3D3D3D3D3D3D3D3D3D3D3D3D7F
:103180003D3D3D3D3D3D3D3D3D3D3D3D3D3D3D3D6F
:103190003D3D3D3D3D3D3D3D3D3D0D0A00000000B6
:1031A0002DE9F04704460D460027B846B9460026EB
:1031B0001D49601A8C421CD006DC1C48204470B1AA
:1031C000B0F5806F1FD10FE0B0F5806F16D0B0F56D
:1031D0006C4F18D10320FFF729FE074614E00220A8
:1031E000FFF724FE07460FE00220FFF71FFE074609
:1031F0000AE00220FFF71AFE074605E00220FFF76B
:1032000015FE074600E000BF00BF07EB5500B0FB0E
:10321000F5F64FF6F07006EA000806F00F0948EAE6
:103220000900A060BDE8F087004C004000BCFFBF73
:1032300001464868C0F308007047C1F308024260C5
:103240007047000010B504462049601A8C4228D00F
:1032500006DC1F48204490B1B0F5806F33D117E0F1
:10326000B0F5806F26D0B0F56C4F2CD140F20E3007
:10327000FFF78EFE40F20E30FFF77AFE24E040F2B8
:103280001140FFF785FE40F21140FFF771FE1BE091
:1032900040F21240FFF77CFE40F21240FFF768FE5A
:1032A00012E040F21340FFF773FE40F21340FFF7C5
:1032B0005FFE09E040F21440FFF76AFE40F214405E
:1032C000FFF756FE00E000BF00BF10BD004C0040FD
:1032D00000BCFFBFC16841F40051C160704710B528
:1032E000024602EB9110006801F01F040123A34085
:1032F000184008B1012010BD0020FCE70A4600215B
:10330000416921F400711143416170470A4600216F
:10331000416921F48071114341617047C26822F410
:10332000C062C260C2680A43C26070470A46002198
:10333000C16821F004011143C1607047026922F4A1
:103340004052026102690A43026170470A46002145
:10335000C16821F008011143C1607047C26822F4BE
:103360008052C260C2680A43C260704778A46AD7BC
:1033700056B7C7E8DB702024EECEBDC1AF0F7CF599
:103380002AC68747134630A8019546FDD89880691C
:10339000AFF7448BB15BFFFFBED75C892211906B06
:1033A000937198FD8E4379A62108B44962251EF6D3
:1033B00040B340C0515A5E26AAC7B6E95D102FD669
:1033C0005314440281E6A1D8C8FBD3E7E6CDE1213E
:1033D000D60737C3870DD5F4ED145A4505E9E3A99F
:1033E000F8A3EFFCD9026F678A4C2A8D4239FAFFA5
:1033F00081F6718722619D6D0C38E5FD44EABEA41B
:10340000A9CFDE4B604BBBF670BCBFBEC67E9B280F
:10341000FA27A1EA8530EFD4051D880439D0D4D924
:10342000E599DBE6F87CA21F6556ACC4442229F47A
:1034300097FF2A43A72394AB39A093FCC3595B653C
:1034400092CC0C8F7DF4EFFFD15D84854F7EA86F09
:10345000E0E62CFE144301A3A111084E827E53F72F
:1034600035F23ABDBBD2D72A91D386EB07000000D4
:103470000C00000011000000160000000700000012
:103480000C00000011000000160000000700000002
:103490000C000000110000001600000007000000F2
:1034A0000C000000110000001600000005000000E4
:1034B000090000000E0000001400000005000000DC
:1034C000090000000E0000001400000005000000CC
:1034D000090000000E0000001400000005000000BC
:1034E000090000000E0000001400000004000000AD
:1034F0000B00000010000000170000000400000096
:103500000B00000010000000170000000400000085
:103510000B00000010000000170000000400000075
:103520000B00000010000000170000000600000063
:103530000A0000000F000000150000000600000057
:103540000A0000000F000000150000000600000047
:103550000A0000000F000000150000000600000037
:103560000A0000000F00000015000000012345675D
:1035700089ABCDEFFEDCBA9876543210312E202084
:10358000446F776E6C6F616420496D61676520548C
:103590006F207468652047443332463130782049C3
:1035A0006E7465726E616C20466C6173682028646D
:1035B0006562756720207561727430290D0A0000FC
:1035C0002E2E2E616E6420612053797374656D20F8
:1035D00052657365742077696C6C2062652067653D
:1035E0006E65726174656420746F2072652D6C6FF6
:1035F000616420746865206E6577206F7074696FF0
:103600006E2062797465730D0A0000000A0A0D20AD
:1036100050726F6772616D6D696E6720436F6D7078
:103620006C65746564205375636365737366756C4C
:103630006C79210A0D2D2D2D2D2D2D2D2D2D2D2D7E
:103640002D2D2D2D2D2D2D2D2D2D2D2D2D2D2D2DAA
:103650002D2D2D2D2D0D0A204E616D653A20000077
:103660004275696C6474696D65203A4A756E2031E3
:103670003220323032332031363A35363A35350061
:103680000D0A3D2020202020202020202020202046
:10369000202020202020202020202020202020202A
:1036A000202020202020202020202020202020201A
:1036B000202020202020202020202020202020200A
:1036C00020202020203D00000D0A3D202020202029
:1036D00020202020202028432920434F50595249A0
:1036E00047485420323032332048754E616E48547A
:1036F0004A432042592064617A68692020202020B2
:10370000202020202020202020202020203D0000DC
:103710000D0A3D2020202020496E2D4170706C69DB
:10372000636174696F6E2050726F6772616D6D694D
:103730006E67204170706C69636174696F6E2020E0
:103740002856657273696F6E20332E332E3129200F
:1037500020202020203D00007837000800000020B5
:103760005C000000D8170008D43700085C00002077
:1037700064200000E81700080000000000000000BE
:103780000000000000000000000000000000000039
:10379000000000000000000000000000603600088B
:1037A00000000000006000080004000000000000AD
:1037B0000000000000000000000000000000000009
:1037C0000000000000440040005C000800F36F06A9
:0437D00000000000F5
:0400000508000105E9
:00000001FF
